{
	"contracts/casino2.sol": {
		"DecentralizedCasino": {
			"abi": [
				{
					"inputs": [
						{
							"internalType": "address",
							"name": "",
							"type": "address"
						}
					],
					"name": "blockNumbersToBeUsed",
					"outputs": [
						{
							"internalType": "uint256",
							"name": "",
							"type": "uint256"
						}
					],
					"stateMutability": "view",
					"type": "function"
				},
				{
					"inputs": [
						{
							"internalType": "address",
							"name": "",
							"type": "address"
						}
					],
					"name": "gameWeiValues",
					"outputs": [
						{
							"internalType": "uint256",
							"name": "",
							"type": "uint256"
						}
					],
					"stateMutability": "view",
					"type": "function"
				},
				{
					"inputs": [
						{
							"internalType": "uint256",
							"name": "",
							"type": "uint256"
						}
					],
					"name": "lastThreeWinners",
					"outputs": [
						{
							"internalType": "address",
							"name": "",
							"type": "address"
						}
					],
					"stateMutability": "view",
					"type": "function"
				},
				{
					"inputs": [],
					"name": "playGame",
					"outputs": [],
					"stateMutability": "payable",
					"type": "function"
				},
				{
					"stateMutability": "payable",
					"type": "receive"
				}
			],
			"devdoc": {
				"kind": "dev",
				"methods": {},
				"version": 1
			},
			"evm": {
				"assembly": "    /* \"contracts/casino2.sol\":62:1581  contract DecentralizedCasino {... */\n  mstore(0x40, 0x80)\n  callvalue\n  dup1\n  iszero\n  tag_1\n  jumpi\n  0x00\n  dup1\n  revert\ntag_1:\n  pop\n  dataSize(sub_0)\n  dup1\n  dataOffset(sub_0)\n  0x00\n  codecopy\n  0x00\n  return\nstop\n\nsub_0: assembly {\n        /* \"contracts/casino2.sol\":62:1581  contract DecentralizedCasino {... */\n      mstore(0x40, 0x80)\n      jumpi(tag_1, lt(calldatasize, 0x04))\n      shr(0xe0, calldataload(0x00))\n      dup1\n      0x11ec0dde\n      eq\n      tag_3\n      jumpi\n      dup1\n      0x736c5b03\n      eq\n      tag_4\n      jumpi\n      dup1\n      0x8398aefe\n      eq\n      tag_5\n      jumpi\n      dup1\n      0xaf899735\n      eq\n      tag_6\n      jumpi\n      jump(tag_2)\n    tag_1:\n      jumpi(tag_2, calldatasize)\n        /* \"contracts/casino2.sol\":1560:1570  playGame() */\n      tag_9\n        /* \"contracts/casino2.sol\":1560:1568  playGame */\n      tag_10\n        /* \"contracts/casino2.sol\":1560:1570  playGame() */\n      jump\t// in\n    tag_9:\n        /* \"contracts/casino2.sol\":62:1581  contract DecentralizedCasino {... */\n      stop\n    tag_2:\n      0x00\n      dup1\n      revert\n        /* \"contracts/casino2.sol\":98:146  mapping(address => uint256) public gameWeiValues */\n    tag_3:\n      callvalue\n      dup1\n      iszero\n      tag_11\n      jumpi\n      0x00\n      dup1\n      revert\n    tag_11:\n      pop\n      tag_12\n      0x04\n      dup1\n      calldatasize\n      sub\n      dup2\n      add\n      swap1\n      tag_13\n      swap2\n      swap1\n      tag_14\n      jump\t// in\n    tag_13:\n      tag_15\n      jump\t// in\n    tag_12:\n      mload(0x40)\n      tag_16\n      swap2\n      swap1\n      tag_17\n      jump\t// in\n    tag_16:\n      mload(0x40)\n      dup1\n      swap2\n      sub\n      swap1\n      return\n        /* \"contracts/casino2.sol\":217:250  address[] public lastThreeWinners */\n    tag_4:\n      callvalue\n      dup1\n      iszero\n      tag_18\n      jumpi\n      0x00\n      dup1\n      revert\n    tag_18:\n      pop\n      tag_19\n      0x04\n      dup1\n      calldatasize\n      sub\n      dup2\n      add\n      swap1\n      tag_20\n      swap2\n      swap1\n      tag_21\n      jump\t// in\n    tag_20:\n      tag_22\n      jump\t// in\n    tag_19:\n      mload(0x40)\n      tag_23\n      swap2\n      swap1\n      tag_24\n      jump\t// in\n    tag_23:\n      mload(0x40)\n      dup1\n      swap2\n      sub\n      swap1\n      return\n        /* \"contracts/casino2.sol\":153:208  mapping(address => uint256) public blockNumbersToBeUsed */\n    tag_5:\n      callvalue\n      dup1\n      iszero\n      tag_25\n      jumpi\n      0x00\n      dup1\n      revert\n    tag_25:\n      pop\n      tag_26\n      0x04\n      dup1\n      calldatasize\n      sub\n      dup2\n      add\n      swap1\n      tag_27\n      swap2\n      swap1\n      tag_14\n      jump\t// in\n    tag_27:\n      tag_28\n      jump\t// in\n    tag_26:\n      mload(0x40)\n      tag_29\n      swap2\n      swap1\n      tag_17\n      jump\t// in\n    tag_29:\n      mload(0x40)\n      dup1\n      swap2\n      sub\n      swap1\n      return\n        /* \"contracts/casino2.sol\":259:1514  function playGame() public payable {... */\n    tag_6:\n      tag_30\n      tag_10\n      jump\t// in\n    tag_30:\n      stop\n    tag_10:\n        /* \"contracts/casino2.sol\":305:332  uint256 blockNumberToBeUsed */\n      0x00\n        /* \"contracts/casino2.sol\":335:355  blockNumbersToBeUsed */\n      0x01\n        /* \"contracts/casino2.sol\":335:367  blockNumbersToBeUsed[msg.sender] */\n      0x00\n        /* \"contracts/casino2.sol\":356:366  msg.sender */\n      caller\n        /* \"contracts/casino2.sol\":335:367  blockNumbersToBeUsed[msg.sender] */\n      0xffffffffffffffffffffffffffffffffffffffff\n      and\n      0xffffffffffffffffffffffffffffffffffffffff\n      and\n      dup2\n      mstore\n      0x20\n      add\n      swap1\n      dup2\n      mstore\n      0x20\n      add\n      0x00\n      keccak256\n      sload\n        /* \"contracts/casino2.sol\":305:367  uint256 blockNumberToBeUsed = blockNumbersToBeUsed[msg.sender] */\n      swap1\n      pop\n        /* \"contracts/casino2.sol\":407:408  0 */\n      0x00\n        /* \"contracts/casino2.sol\":384:403  blockNumberToBeUsed */\n      dup2\n        /* \"contracts/casino2.sol\":384:408  blockNumberToBeUsed == 0 */\n      sub\n        /* \"contracts/casino2.sol\":380:624  if (blockNumberToBeUsed == 0) {... */\n      tag_32\n      jumpi\n        /* \"contracts/casino2.sol\":536:539  128 */\n      0x80\n        /* \"contracts/casino2.sol\":521:533  block.number */\n      number\n        /* \"contracts/casino2.sol\":521:539  block.number + 128 */\n      tag_33\n      swap2\n      swap1\n      tag_34\n      jump\t// in\n    tag_33:\n        /* \"contracts/casino2.sol\":486:506  blockNumbersToBeUsed */\n      0x01\n        /* \"contracts/casino2.sol\":486:518  blockNumbersToBeUsed[msg.sender] */\n      0x00\n        /* \"contracts/casino2.sol\":507:517  msg.sender */\n      caller\n        /* \"contracts/casino2.sol\":486:518  blockNumbersToBeUsed[msg.sender] */\n      0xffffffffffffffffffffffffffffffffffffffff\n      and\n      0xffffffffffffffffffffffffffffffffffffffff\n      and\n      dup2\n      mstore\n      0x20\n      add\n      swap1\n      dup2\n      mstore\n      0x20\n      add\n      0x00\n      keccak256\n        /* \"contracts/casino2.sol\":486:539  blockNumbersToBeUsed[msg.sender] = block.number + 128 */\n      dup2\n      swap1\n      sstore\n      pop\n        /* \"contracts/casino2.sol\":582:591  msg.value */\n      callvalue\n        /* \"contracts/casino2.sol\":554:567  gameWeiValues */\n      0x00\n        /* \"contracts/casino2.sol\":554:579  gameWeiValues[msg.sender] */\n      dup1\n        /* \"contracts/casino2.sol\":568:578  msg.sender */\n      caller\n        /* \"contracts/casino2.sol\":554:579  gameWeiValues[msg.sender] */\n      0xffffffffffffffffffffffffffffffffffffffff\n      and\n      0xffffffffffffffffffffffffffffffffffffffff\n      and\n      dup2\n      mstore\n      0x20\n      add\n      swap1\n      dup2\n      mstore\n      0x20\n      add\n      0x00\n      keccak256\n        /* \"contracts/casino2.sol\":554:591  gameWeiValues[msg.sender] = msg.value */\n      dup2\n      swap1\n      sstore\n      pop\n        /* \"contracts/casino2.sol\":606:613  return; */\n      pop\n      jump(tag_31)\n        /* \"contracts/casino2.sol\":380:624  if (blockNumberToBeUsed == 0) {... */\n    tag_32:\n        /* \"contracts/casino2.sol\":659:679  blockNumbersToBeUsed */\n      0x01\n        /* \"contracts/casino2.sol\":659:691  blockNumbersToBeUsed[msg.sender] */\n      0x00\n        /* \"contracts/casino2.sol\":680:690  msg.sender */\n      caller\n        /* \"contracts/casino2.sol\":659:691  blockNumbersToBeUsed[msg.sender] */\n      0xffffffffffffffffffffffffffffffffffffffff\n      and\n      0xffffffffffffffffffffffffffffffffffffffff\n      and\n      dup2\n      mstore\n      0x20\n      add\n      swap1\n      dup2\n      mstore\n      0x20\n      add\n      0x00\n      keccak256\n      sload\n        /* \"contracts/casino2.sol\":644:656  block.number */\n      number\n        /* \"contracts/casino2.sol\":644:691  block.number > blockNumbersToBeUsed[msg.sender] */\n      gt\n        /* \"contracts/casino2.sol\":636:705  require(block.number > blockNumbersToBeUsed[msg.sender], \"Too early\") */\n      tag_35\n      jumpi\n      mload(0x40)\n      0x08c379a000000000000000000000000000000000000000000000000000000000\n      dup2\n      mstore\n      0x04\n      add\n      tag_36\n      swap1\n      tag_37\n      jump\t// in\n    tag_36:\n      mload(0x40)\n      dup1\n      swap2\n      sub\n      swap1\n      revert\n    tag_35:\n        /* \"contracts/casino2.sol\":739:759  blockNumbersToBeUsed */\n      0x01\n        /* \"contracts/casino2.sol\":739:771  blockNumbersToBeUsed[msg.sender] */\n      0x00\n        /* \"contracts/casino2.sol\":760:770  msg.sender */\n      caller\n        /* \"contracts/casino2.sol\":739:771  blockNumbersToBeUsed[msg.sender] */\n      0xffffffffffffffffffffffffffffffffffffffff\n      and\n      0xffffffffffffffffffffffffffffffffffffffff\n      and\n      dup2\n      mstore\n      0x20\n      add\n      swap1\n      dup2\n      mstore\n      0x20\n      add\n      0x00\n      keccak256\n      sload\n        /* \"contracts/casino2.sol\":724:736  block.number */\n      number\n        /* \"contracts/casino2.sol\":724:771  block.number < blockNumbersToBeUsed[msg.sender] */\n      lt\n        /* \"contracts/casino2.sol\":716:784  require(block.number < blockNumbersToBeUsed[msg.sender], \"Too late\") */\n      tag_38\n      jumpi\n      mload(0x40)\n      0x08c379a000000000000000000000000000000000000000000000000000000000\n      dup2\n      mstore\n      0x04\n      add\n      tag_39\n      swap1\n      tag_40\n      jump\t// in\n    tag_39:\n      mload(0x40)\n      dup1\n      swap2\n      sub\n      swap1\n      revert\n    tag_38:\n        /* \"contracts/casino2.sol\":797:817  uint256 randomNumber */\n      0x00\n        /* \"contracts/casino2.sol\":820:836  block.prevrandao */\n      prevrandao\n        /* \"contracts/casino2.sol\":797:836  uint256 randomNumber = block.prevrandao */\n      swap1\n      pop\n        /* \"contracts/casino2.sol\":873:874  0 */\n      0x00\n        /* \"contracts/casino2.sol\":868:869  2 */\n      0x02\n        /* \"contracts/casino2.sol\":853:865  randomNumber */\n      dup3\n        /* \"contracts/casino2.sol\":853:869  randomNumber % 2 */\n      tag_41\n      swap2\n      swap1\n      tag_42\n      jump\t// in\n    tag_41:\n        /* \"contracts/casino2.sol\":853:874  randomNumber % 2 == 0 */\n      sub\n        /* \"contracts/casino2.sol\":849:1418  if (randomNumber % 2 == 0) {... */\n      tag_43\n      jumpi\n        /* \"contracts/casino2.sol\":891:912  uint256 winningAmount */\n      0x00\n        /* \"contracts/casino2.sol\":943:944  2 */\n      0x02\n        /* \"contracts/casino2.sol\":915:928  gameWeiValues */\n      0x00\n        /* \"contracts/casino2.sol\":915:940  gameWeiValues[msg.sender] */\n      dup1\n        /* \"contracts/casino2.sol\":929:939  msg.sender */\n      caller\n        /* \"contracts/casino2.sol\":915:940  gameWeiValues[msg.sender] */\n      0xffffffffffffffffffffffffffffffffffffffff\n      and\n      0xffffffffffffffffffffffffffffffffffffffff\n      and\n      dup2\n      mstore\n      0x20\n      add\n      swap1\n      dup2\n      mstore\n      0x20\n      add\n      0x00\n      keccak256\n      sload\n        /* \"contracts/casino2.sol\":915:944  gameWeiValues[msg.sender] * 2 */\n      tag_44\n      swap2\n      swap1\n      tag_45\n      jump\t// in\n    tag_44:\n        /* \"contracts/casino2.sol\":891:944  uint256 winningAmount = gameWeiValues[msg.sender] * 2 */\n      swap1\n      pop\n        /* \"contracts/casino2.sol\":960:972  bool success */\n      0x00\n        /* \"contracts/casino2.sol\":978:988  msg.sender */\n      caller\n        /* \"contracts/casino2.sol\":978:993  msg.sender.call */\n      0xffffffffffffffffffffffffffffffffffffffff\n      and\n        /* \"contracts/casino2.sol\":1001:1014  winningAmount */\n      dup3\n        /* \"contracts/casino2.sol\":978:1019  msg.sender.call{value: winningAmount}(\"\") */\n      mload(0x40)\n      tag_46\n      swap1\n      tag_47\n      jump\t// in\n    tag_46:\n      0x00\n      mload(0x40)\n      dup1\n      dup4\n      sub\n      dup2\n      dup6\n      dup8\n      gas\n      call\n      swap3\n      pop\n      pop\n      pop\n      returndatasize\n      dup1\n      0x00\n      dup2\n      eq\n      tag_50\n      jumpi\n      mload(0x40)\n      swap2\n      pop\n      and(add(returndatasize, 0x3f), not(0x1f))\n      dup3\n      add\n      0x40\n      mstore\n      returndatasize\n      dup3\n      mstore\n      returndatasize\n      0x00\n      0x20\n      dup5\n      add\n      returndatacopy\n      jump(tag_49)\n    tag_50:\n      0x60\n      swap2\n      pop\n    tag_49:\n      pop\n        /* \"contracts/casino2.sol\":959:1019  (bool success, ) = msg.sender.call{value: winningAmount}(\"\") */\n      pop\n      swap1\n      pop\n        /* \"contracts/casino2.sol\":1042:1049  success */\n      dup1\n        /* \"contracts/casino2.sol\":1034:1070  require(success, \"Transfer failed.\") */\n      tag_51\n      jumpi\n      mload(0x40)\n      0x08c379a000000000000000000000000000000000000000000000000000000000\n      dup2\n      mstore\n      0x04\n      add\n      tag_52\n      swap1\n      tag_53\n      jump\t// in\n    tag_52:\n      mload(0x40)\n      dup1\n      swap2\n      sub\n      swap1\n      revert\n    tag_51:\n        /* \"contracts/casino2.sol\":1087:1103  lastThreeWinners */\n      0x02\n        /* \"contracts/casino2.sol\":1109:1119  msg.sender */\n      caller\n        /* \"contracts/casino2.sol\":1087:1120  lastThreeWinners.push(msg.sender) */\n      swap1\n      dup1\n      0x01\n      dup2\n      sload\n      add\n      dup1\n      dup3\n      sstore\n      dup1\n      swap2\n      pop\n      pop\n      0x01\n      swap1\n      sub\n      swap1\n      0x00\n      mstore\n      keccak256(0x00, 0x20)\n      add\n      0x00\n      swap1\n      swap2\n      swap1\n      swap2\n      swap1\n      swap2\n      0x0100\n      exp\n      dup2\n      sload\n      dup2\n      0xffffffffffffffffffffffffffffffffffffffff\n      mul\n      not\n      and\n      swap1\n      dup4\n      0xffffffffffffffffffffffffffffffffffffffff\n      and\n      mul\n      or\n      swap1\n      sstore\n      pop\n        /* \"contracts/casino2.sol\":1167:1168  3 */\n      0x03\n        /* \"contracts/casino2.sol\":1141:1157  lastThreeWinners */\n      0x02\n        /* \"contracts/casino2.sol\":1141:1164  lastThreeWinners.length */\n      dup1\n      sload\n      swap1\n      pop\n        /* \"contracts/casino2.sol\":1141:1168  lastThreeWinners.length > 3 */\n      gt\n        /* \"contracts/casino2.sol\":1137:1407  if (lastThreeWinners.length > 3) {... */\n      iszero\n      tag_55\n      jumpi\n        /* \"contracts/casino2.sol\":1211:1227  lastThreeWinners */\n      0x02\n        /* \"contracts/casino2.sol\":1228:1229  1 */\n      0x01\n        /* \"contracts/casino2.sol\":1211:1230  lastThreeWinners[1] */\n      dup2\n      sload\n      dup2\n      lt\n      tag_56\n      jumpi\n      tag_57\n      tag_58\n      jump\t// in\n    tag_57:\n    tag_56:\n      swap1\n      0x00\n      mstore\n      keccak256(0x00, 0x20)\n      add\n      0x00\n      swap1\n      sload\n      swap1\n      0x0100\n      exp\n      swap1\n      div\n      0xffffffffffffffffffffffffffffffffffffffff\n      and\n        /* \"contracts/casino2.sol\":1189:1205  lastThreeWinners */\n      0x02\n        /* \"contracts/casino2.sol\":1206:1207  0 */\n      0x00\n        /* \"contracts/casino2.sol\":1189:1208  lastThreeWinners[0] */\n      dup2\n      sload\n      dup2\n      lt\n      tag_60\n      jumpi\n      tag_61\n      tag_58\n      jump\t// in\n    tag_61:\n    tag_60:\n      swap1\n      0x00\n      mstore\n      keccak256(0x00, 0x20)\n      add\n      0x00\n        /* \"contracts/casino2.sol\":1189:1230  lastThreeWinners[0] = lastThreeWinners[1] */\n      0x0100\n      exp\n      dup2\n      sload\n      dup2\n      0xffffffffffffffffffffffffffffffffffffffff\n      mul\n      not\n      and\n      swap1\n      dup4\n      0xffffffffffffffffffffffffffffffffffffffff\n      and\n      mul\n      or\n      swap1\n      sstore\n      pop\n        /* \"contracts/casino2.sol\":1271:1287  lastThreeWinners */\n      0x02\n        /* \"contracts/casino2.sol\":1288:1289  2 */\n      dup1\n        /* \"contracts/casino2.sol\":1271:1290  lastThreeWinners[2] */\n      dup2\n      sload\n      dup2\n      lt\n      tag_63\n      jumpi\n      tag_64\n      tag_58\n      jump\t// in\n    tag_64:\n    tag_63:\n      swap1\n      0x00\n      mstore\n      keccak256(0x00, 0x20)\n      add\n      0x00\n      swap1\n      sload\n      swap1\n      0x0100\n      exp\n      swap1\n      div\n      0xffffffffffffffffffffffffffffffffffffffff\n      and\n        /* \"contracts/casino2.sol\":1249:1265  lastThreeWinners */\n      0x02\n        /* \"contracts/casino2.sol\":1266:1267  1 */\n      0x01\n        /* \"contracts/casino2.sol\":1249:1268  lastThreeWinners[1] */\n      dup2\n      sload\n      dup2\n      lt\n      tag_66\n      jumpi\n      tag_67\n      tag_58\n      jump\t// in\n    tag_67:\n    tag_66:\n      swap1\n      0x00\n      mstore\n      keccak256(0x00, 0x20)\n      add\n      0x00\n        /* \"contracts/casino2.sol\":1249:1290  lastThreeWinners[1] = lastThreeWinners[2] */\n      0x0100\n      exp\n      dup2\n      sload\n      dup2\n      0xffffffffffffffffffffffffffffffffffffffff\n      mul\n      not\n      and\n      swap1\n      dup4\n      0xffffffffffffffffffffffffffffffffffffffff\n      and\n      mul\n      or\n      swap1\n      sstore\n      pop\n        /* \"contracts/casino2.sol\":1331:1347  lastThreeWinners */\n      0x02\n        /* \"contracts/casino2.sol\":1348:1349  3 */\n      0x03\n        /* \"contracts/casino2.sol\":1331:1350  lastThreeWinners[3] */\n      dup2\n      sload\n      dup2\n      lt\n      tag_69\n      jumpi\n      tag_70\n      tag_58\n      jump\t// in\n    tag_70:\n    tag_69:\n      swap1\n      0x00\n      mstore\n      keccak256(0x00, 0x20)\n      add\n      0x00\n      swap1\n      sload\n      swap1\n      0x0100\n      exp\n      swap1\n      div\n      0xffffffffffffffffffffffffffffffffffffffff\n      and\n        /* \"contracts/casino2.sol\":1309:1325  lastThreeWinners */\n      0x02\n        /* \"contracts/casino2.sol\":1326:1327  2 */\n      dup1\n        /* \"contracts/casino2.sol\":1309:1328  lastThreeWinners[2] */\n      dup2\n      sload\n      dup2\n      lt\n      tag_72\n      jumpi\n      tag_73\n      tag_58\n      jump\t// in\n    tag_73:\n    tag_72:\n      swap1\n      0x00\n      mstore\n      keccak256(0x00, 0x20)\n      add\n      0x00\n        /* \"contracts/casino2.sol\":1309:1350  lastThreeWinners[2] = lastThreeWinners[3] */\n      0x0100\n      exp\n      dup2\n      sload\n      dup2\n      0xffffffffffffffffffffffffffffffffffffffff\n      mul\n      not\n      and\n      swap1\n      dup4\n      0xffffffffffffffffffffffffffffffffffffffff\n      and\n      mul\n      or\n      swap1\n      sstore\n      pop\n        /* \"contracts/casino2.sol\":1369:1385  lastThreeWinners */\n      0x02\n        /* \"contracts/casino2.sol\":1369:1391  lastThreeWinners.pop() */\n      dup1\n      sload\n      dup1\n      tag_75\n      jumpi\n      tag_76\n      tag_77\n      jump\t// in\n    tag_76:\n    tag_75:\n      0x01\n      swap1\n      sub\n      dup2\n      dup2\n      swap1\n      0x00\n      mstore\n      keccak256(0x00, 0x20)\n      add\n      exp(0x0100, 0x00)\n      dup2\n      sload\n      swap1\n      0xffffffffffffffffffffffffffffffffffffffff\n      mul\n      not\n      and\n      swap1\n      sstore\n      swap1\n      sstore\n        /* \"contracts/casino2.sol\":1137:1407  if (lastThreeWinners.length > 3) {... */\n    tag_55:\n        /* \"contracts/casino2.sol\":876:1418  {... */\n      pop\n      pop\n        /* \"contracts/casino2.sol\":849:1418  if (randomNumber % 2 == 0) {... */\n    tag_43:\n        /* \"contracts/casino2.sol\":1465:1466  0 */\n      0x00\n        /* \"contracts/casino2.sol\":1430:1450  blockNumbersToBeUsed */\n      0x01\n        /* \"contracts/casino2.sol\":1430:1462  blockNumbersToBeUsed[msg.sender] */\n      0x00\n        /* \"contracts/casino2.sol\":1451:1461  msg.sender */\n      caller\n        /* \"contracts/casino2.sol\":1430:1462  blockNumbersToBeUsed[msg.sender] */\n      0xffffffffffffffffffffffffffffffffffffffff\n      and\n      0xffffffffffffffffffffffffffffffffffffffff\n      and\n      dup2\n      mstore\n      0x20\n      add\n      swap1\n      dup2\n      mstore\n      0x20\n      add\n      0x00\n      keccak256\n        /* \"contracts/casino2.sol\":1430:1466  blockNumbersToBeUsed[msg.sender] = 0 */\n      dup2\n      swap1\n      sstore\n      pop\n        /* \"contracts/casino2.sol\":1505:1506  0 */\n      0x00\n        /* \"contracts/casino2.sol\":1477:1490  gameWeiValues */\n      dup1\n        /* \"contracts/casino2.sol\":1477:1502  gameWeiValues[msg.sender] */\n      0x00\n        /* \"contracts/casino2.sol\":1491:1501  msg.sender */\n      caller\n        /* \"contracts/casino2.sol\":1477:1502  gameWeiValues[msg.sender] */\n      0xffffffffffffffffffffffffffffffffffffffff\n      and\n      0xffffffffffffffffffffffffffffffffffffffff\n      and\n      dup2\n      mstore\n      0x20\n      add\n      swap1\n      dup2\n      mstore\n      0x20\n      add\n      0x00\n      keccak256\n        /* \"contracts/casino2.sol\":1477:1506  gameWeiValues[msg.sender] = 0 */\n      dup2\n      swap1\n      sstore\n      pop\n        /* \"contracts/casino2.sol\":294:1514  {... */\n      pop\n      pop\n        /* \"contracts/casino2.sol\":259:1514  function playGame() public payable {... */\n    tag_31:\n      jump\t// out\n        /* \"contracts/casino2.sol\":98:146  mapping(address => uint256) public gameWeiValues */\n    tag_15:\n      mstore(0x20, 0x00)\n      dup1\n      0x00\n      mstore\n      keccak256(0x00, 0x40)\n      0x00\n      swap2\n      pop\n      swap1\n      pop\n      sload\n      dup2\n      jump\t// out\n        /* \"contracts/casino2.sol\":217:250  address[] public lastThreeWinners */\n    tag_22:\n      0x02\n      dup2\n      dup2\n      sload\n      dup2\n      lt\n      tag_79\n      jumpi\n      0x00\n      dup1\n      revert\n    tag_79:\n      swap1\n      0x00\n      mstore\n      keccak256(0x00, 0x20)\n      add\n      0x00\n      swap2\n      pop\n      sload\n      swap1\n      0x0100\n      exp\n      swap1\n      div\n      0xffffffffffffffffffffffffffffffffffffffff\n      and\n      dup2\n      jump\t// out\n        /* \"contracts/casino2.sol\":153:208  mapping(address => uint256) public blockNumbersToBeUsed */\n    tag_28:\n      mstore(0x20, 0x01)\n      dup1\n      0x00\n      mstore\n      keccak256(0x00, 0x40)\n      0x00\n      swap2\n      pop\n      swap1\n      pop\n      sload\n      dup2\n      jump\t// out\n        /* \"#utility.yul\":88:205   */\n    tag_82:\n        /* \"#utility.yul\":197:198   */\n      0x00\n        /* \"#utility.yul\":194:195   */\n      dup1\n        /* \"#utility.yul\":187:199   */\n      revert\n        /* \"#utility.yul\":334:460   */\n    tag_84:\n        /* \"#utility.yul\":371:378   */\n      0x00\n        /* \"#utility.yul\":411:453   */\n      0xffffffffffffffffffffffffffffffffffffffff\n        /* \"#utility.yul\":404:409   */\n      dup3\n        /* \"#utility.yul\":400:454   */\n      and\n        /* \"#utility.yul\":389:454   */\n      swap1\n      pop\n        /* \"#utility.yul\":334:460   */\n      swap2\n      swap1\n      pop\n      jump\t// out\n        /* \"#utility.yul\":466:562   */\n    tag_85:\n        /* \"#utility.yul\":503:510   */\n      0x00\n        /* \"#utility.yul\":532:556   */\n      tag_111\n        /* \"#utility.yul\":550:555   */\n      dup3\n        /* \"#utility.yul\":532:556   */\n      tag_84\n      jump\t// in\n    tag_111:\n        /* \"#utility.yul\":521:556   */\n      swap1\n      pop\n        /* \"#utility.yul\":466:562   */\n      swap2\n      swap1\n      pop\n      jump\t// out\n        /* \"#utility.yul\":568:690   */\n    tag_86:\n        /* \"#utility.yul\":641:665   */\n      tag_113\n        /* \"#utility.yul\":659:664   */\n      dup2\n        /* \"#utility.yul\":641:665   */\n      tag_85\n      jump\t// in\n    tag_113:\n        /* \"#utility.yul\":634:639   */\n      dup2\n        /* \"#utility.yul\":631:666   */\n      eq\n        /* \"#utility.yul\":621:684   */\n      tag_114\n      jumpi\n        /* \"#utility.yul\":680:681   */\n      0x00\n        /* \"#utility.yul\":677:678   */\n      dup1\n        /* \"#utility.yul\":670:682   */\n      revert\n        /* \"#utility.yul\":621:684   */\n    tag_114:\n        /* \"#utility.yul\":568:690   */\n      pop\n      jump\t// out\n        /* \"#utility.yul\":696:835   */\n    tag_87:\n        /* \"#utility.yul\":742:747   */\n      0x00\n        /* \"#utility.yul\":780:786   */\n      dup2\n        /* \"#utility.yul\":767:787   */\n      calldataload\n        /* \"#utility.yul\":758:787   */\n      swap1\n      pop\n        /* \"#utility.yul\":796:829   */\n      tag_116\n        /* \"#utility.yul\":823:828   */\n      dup2\n        /* \"#utility.yul\":796:829   */\n      tag_86\n      jump\t// in\n    tag_116:\n        /* \"#utility.yul\":696:835   */\n      swap3\n      swap2\n      pop\n      pop\n      jump\t// out\n        /* \"#utility.yul\":841:1170   */\n    tag_14:\n        /* \"#utility.yul\":900:906   */\n      0x00\n        /* \"#utility.yul\":949:951   */\n      0x20\n        /* \"#utility.yul\":937:946   */\n      dup3\n        /* \"#utility.yul\":928:935   */\n      dup5\n        /* \"#utility.yul\":924:947   */\n      sub\n        /* \"#utility.yul\":920:952   */\n      slt\n        /* \"#utility.yul\":917:1036   */\n      iszero\n      tag_118\n      jumpi\n        /* \"#utility.yul\":955:1034   */\n      tag_119\n      tag_82\n      jump\t// in\n    tag_119:\n        /* \"#utility.yul\":917:1036   */\n    tag_118:\n        /* \"#utility.yul\":1075:1076   */\n      0x00\n        /* \"#utility.yul\":1100:1153   */\n      tag_120\n        /* \"#utility.yul\":1145:1152   */\n      dup5\n        /* \"#utility.yul\":1136:1142   */\n      dup3\n        /* \"#utility.yul\":1125:1134   */\n      dup6\n        /* \"#utility.yul\":1121:1143   */\n      add\n        /* \"#utility.yul\":1100:1153   */\n      tag_87\n      jump\t// in\n    tag_120:\n        /* \"#utility.yul\":1090:1153   */\n      swap2\n      pop\n        /* \"#utility.yul\":1046:1163   */\n      pop\n        /* \"#utility.yul\":841:1170   */\n      swap3\n      swap2\n      pop\n      pop\n      jump\t// out\n        /* \"#utility.yul\":1176:1253   */\n    tag_88:\n        /* \"#utility.yul\":1213:1220   */\n      0x00\n        /* \"#utility.yul\":1242:1247   */\n      dup2\n        /* \"#utility.yul\":1231:1247   */\n      swap1\n      pop\n        /* \"#utility.yul\":1176:1253   */\n      swap2\n      swap1\n      pop\n      jump\t// out\n        /* \"#utility.yul\":1259:1377   */\n    tag_89:\n        /* \"#utility.yul\":1346:1370   */\n      tag_123\n        /* \"#utility.yul\":1364:1369   */\n      dup2\n        /* \"#utility.yul\":1346:1370   */\n      tag_88\n      jump\t// in\n    tag_123:\n        /* \"#utility.yul\":1341:1344   */\n      dup3\n        /* \"#utility.yul\":1334:1371   */\n      mstore\n        /* \"#utility.yul\":1259:1377   */\n      pop\n      pop\n      jump\t// out\n        /* \"#utility.yul\":1383:1605   */\n    tag_17:\n        /* \"#utility.yul\":1476:1480   */\n      0x00\n        /* \"#utility.yul\":1514:1516   */\n      0x20\n        /* \"#utility.yul\":1503:1512   */\n      dup3\n        /* \"#utility.yul\":1499:1517   */\n      add\n        /* \"#utility.yul\":1491:1517   */\n      swap1\n      pop\n        /* \"#utility.yul\":1527:1598   */\n      tag_125\n        /* \"#utility.yul\":1595:1596   */\n      0x00\n        /* \"#utility.yul\":1584:1593   */\n      dup4\n        /* \"#utility.yul\":1580:1597   */\n      add\n        /* \"#utility.yul\":1571:1577   */\n      dup5\n        /* \"#utility.yul\":1527:1598   */\n      tag_89\n      jump\t// in\n    tag_125:\n        /* \"#utility.yul\":1383:1605   */\n      swap3\n      swap2\n      pop\n      pop\n      jump\t// out\n        /* \"#utility.yul\":1611:1733   */\n    tag_90:\n        /* \"#utility.yul\":1684:1708   */\n      tag_127\n        /* \"#utility.yul\":1702:1707   */\n      dup2\n        /* \"#utility.yul\":1684:1708   */\n      tag_88\n      jump\t// in\n    tag_127:\n        /* \"#utility.yul\":1677:1682   */\n      dup2\n        /* \"#utility.yul\":1674:1709   */\n      eq\n        /* \"#utility.yul\":1664:1727   */\n      tag_128\n      jumpi\n        /* \"#utility.yul\":1723:1724   */\n      0x00\n        /* \"#utility.yul\":1720:1721   */\n      dup1\n        /* \"#utility.yul\":1713:1725   */\n      revert\n        /* \"#utility.yul\":1664:1727   */\n    tag_128:\n        /* \"#utility.yul\":1611:1733   */\n      pop\n      jump\t// out\n        /* \"#utility.yul\":1739:1878   */\n    tag_91:\n        /* \"#utility.yul\":1785:1790   */\n      0x00\n        /* \"#utility.yul\":1823:1829   */\n      dup2\n        /* \"#utility.yul\":1810:1830   */\n      calldataload\n        /* \"#utility.yul\":1801:1830   */\n      swap1\n      pop\n        /* \"#utility.yul\":1839:1872   */\n      tag_130\n        /* \"#utility.yul\":1866:1871   */\n      dup2\n        /* \"#utility.yul\":1839:1872   */\n      tag_90\n      jump\t// in\n    tag_130:\n        /* \"#utility.yul\":1739:1878   */\n      swap3\n      swap2\n      pop\n      pop\n      jump\t// out\n        /* \"#utility.yul\":1884:2213   */\n    tag_21:\n        /* \"#utility.yul\":1943:1949   */\n      0x00\n        /* \"#utility.yul\":1992:1994   */\n      0x20\n        /* \"#utility.yul\":1980:1989   */\n      dup3\n        /* \"#utility.yul\":1971:1978   */\n      dup5\n        /* \"#utility.yul\":1967:1990   */\n      sub\n        /* \"#utility.yul\":1963:1995   */\n      slt\n        /* \"#utility.yul\":1960:2079   */\n      iszero\n      tag_132\n      jumpi\n        /* \"#utility.yul\":1998:2077   */\n      tag_133\n      tag_82\n      jump\t// in\n    tag_133:\n        /* \"#utility.yul\":1960:2079   */\n    tag_132:\n        /* \"#utility.yul\":2118:2119   */\n      0x00\n        /* \"#utility.yul\":2143:2196   */\n      tag_134\n        /* \"#utility.yul\":2188:2195   */\n      dup5\n        /* \"#utility.yul\":2179:2185   */\n      dup3\n        /* \"#utility.yul\":2168:2177   */\n      dup6\n        /* \"#utility.yul\":2164:2186   */\n      add\n        /* \"#utility.yul\":2143:2196   */\n      tag_91\n      jump\t// in\n    tag_134:\n        /* \"#utility.yul\":2133:2196   */\n      swap2\n      pop\n        /* \"#utility.yul\":2089:2206   */\n      pop\n        /* \"#utility.yul\":1884:2213   */\n      swap3\n      swap2\n      pop\n      pop\n      jump\t// out\n        /* \"#utility.yul\":2219:2337   */\n    tag_92:\n        /* \"#utility.yul\":2306:2330   */\n      tag_136\n        /* \"#utility.yul\":2324:2329   */\n      dup2\n        /* \"#utility.yul\":2306:2330   */\n      tag_85\n      jump\t// in\n    tag_136:\n        /* \"#utility.yul\":2301:2304   */\n      dup3\n        /* \"#utility.yul\":2294:2331   */\n      mstore\n        /* \"#utility.yul\":2219:2337   */\n      pop\n      pop\n      jump\t// out\n        /* \"#utility.yul\":2343:2565   */\n    tag_24:\n        /* \"#utility.yul\":2436:2440   */\n      0x00\n        /* \"#utility.yul\":2474:2476   */\n      0x20\n        /* \"#utility.yul\":2463:2472   */\n      dup3\n        /* \"#utility.yul\":2459:2477   */\n      add\n        /* \"#utility.yul\":2451:2477   */\n      swap1\n      pop\n        /* \"#utility.yul\":2487:2558   */\n      tag_138\n        /* \"#utility.yul\":2555:2556   */\n      0x00\n        /* \"#utility.yul\":2544:2553   */\n      dup4\n        /* \"#utility.yul\":2540:2557   */\n      add\n        /* \"#utility.yul\":2531:2537   */\n      dup5\n        /* \"#utility.yul\":2487:2558   */\n      tag_92\n      jump\t// in\n    tag_138:\n        /* \"#utility.yul\":2343:2565   */\n      swap3\n      swap2\n      pop\n      pop\n      jump\t// out\n        /* \"#utility.yul\":2571:2751   */\n    tag_93:\n        /* \"#utility.yul\":2619:2696   */\n      0x4e487b7100000000000000000000000000000000000000000000000000000000\n        /* \"#utility.yul\":2616:2617   */\n      0x00\n        /* \"#utility.yul\":2609:2697   */\n      mstore\n        /* \"#utility.yul\":2716:2720   */\n      0x11\n        /* \"#utility.yul\":2713:2714   */\n      0x04\n        /* \"#utility.yul\":2706:2721   */\n      mstore\n        /* \"#utility.yul\":2740:2744   */\n      0x24\n        /* \"#utility.yul\":2737:2738   */\n      0x00\n        /* \"#utility.yul\":2730:2745   */\n      revert\n        /* \"#utility.yul\":2757:2948   */\n    tag_34:\n        /* \"#utility.yul\":2797:2800   */\n      0x00\n        /* \"#utility.yul\":2816:2836   */\n      tag_141\n        /* \"#utility.yul\":2834:2835   */\n      dup3\n        /* \"#utility.yul\":2816:2836   */\n      tag_88\n      jump\t// in\n    tag_141:\n        /* \"#utility.yul\":2811:2836   */\n      swap2\n      pop\n        /* \"#utility.yul\":2850:2870   */\n      tag_142\n        /* \"#utility.yul\":2868:2869   */\n      dup4\n        /* \"#utility.yul\":2850:2870   */\n      tag_88\n      jump\t// in\n    tag_142:\n        /* \"#utility.yul\":2845:2870   */\n      swap3\n      pop\n        /* \"#utility.yul\":2893:2894   */\n      dup3\n        /* \"#utility.yul\":2890:2891   */\n      dup3\n        /* \"#utility.yul\":2886:2895   */\n      add\n        /* \"#utility.yul\":2879:2895   */\n      swap1\n      pop\n        /* \"#utility.yul\":2914:2917   */\n      dup1\n        /* \"#utility.yul\":2911:2912   */\n      dup3\n        /* \"#utility.yul\":2908:2918   */\n      gt\n        /* \"#utility.yul\":2905:2941   */\n      iszero\n      tag_143\n      jumpi\n        /* \"#utility.yul\":2921:2939   */\n      tag_144\n      tag_93\n      jump\t// in\n    tag_144:\n        /* \"#utility.yul\":2905:2941   */\n    tag_143:\n        /* \"#utility.yul\":2757:2948   */\n      swap3\n      swap2\n      pop\n      pop\n      jump\t// out\n        /* \"#utility.yul\":2954:3123   */\n    tag_94:\n        /* \"#utility.yul\":3038:3049   */\n      0x00\n        /* \"#utility.yul\":3072:3078   */\n      dup3\n        /* \"#utility.yul\":3067:3070   */\n      dup3\n        /* \"#utility.yul\":3060:3079   */\n      mstore\n        /* \"#utility.yul\":3112:3116   */\n      0x20\n        /* \"#utility.yul\":3107:3110   */\n      dup3\n        /* \"#utility.yul\":3103:3117   */\n      add\n        /* \"#utility.yul\":3088:3117   */\n      swap1\n      pop\n        /* \"#utility.yul\":2954:3123   */\n      swap3\n      swap2\n      pop\n      pop\n      jump\t// out\n        /* \"#utility.yul\":3129:3288   */\n    tag_95:\n        /* \"#utility.yul\":3269:3280   */\n      0x546f6f206561726c790000000000000000000000000000000000000000000000\n        /* \"#utility.yul\":3265:3266   */\n      0x00\n        /* \"#utility.yul\":3257:3263   */\n      dup3\n        /* \"#utility.yul\":3253:3267   */\n      add\n        /* \"#utility.yul\":3246:3281   */\n      mstore\n        /* \"#utility.yul\":3129:3288   */\n      pop\n      jump\t// out\n        /* \"#utility.yul\":3294:3659   */\n    tag_96:\n        /* \"#utility.yul\":3436:3439   */\n      0x00\n        /* \"#utility.yul\":3457:3523   */\n      tag_148\n        /* \"#utility.yul\":3521:3522   */\n      0x09\n        /* \"#utility.yul\":3516:3519   */\n      dup4\n        /* \"#utility.yul\":3457:3523   */\n      tag_94\n      jump\t// in\n    tag_148:\n        /* \"#utility.yul\":3450:3523   */\n      swap2\n      pop\n        /* \"#utility.yul\":3532:3625   */\n      tag_149\n        /* \"#utility.yul\":3621:3624   */\n      dup3\n        /* \"#utility.yul\":3532:3625   */\n      tag_95\n      jump\t// in\n    tag_149:\n        /* \"#utility.yul\":3650:3652   */\n      0x20\n        /* \"#utility.yul\":3645:3648   */\n      dup3\n        /* \"#utility.yul\":3641:3653   */\n      add\n        /* \"#utility.yul\":3634:3653   */\n      swap1\n      pop\n        /* \"#utility.yul\":3294:3659   */\n      swap2\n      swap1\n      pop\n      jump\t// out\n        /* \"#utility.yul\":3665:4084   */\n    tag_37:\n        /* \"#utility.yul\":3831:3835   */\n      0x00\n        /* \"#utility.yul\":3869:3871   */\n      0x20\n        /* \"#utility.yul\":3858:3867   */\n      dup3\n        /* \"#utility.yul\":3854:3872   */\n      add\n        /* \"#utility.yul\":3846:3872   */\n      swap1\n      pop\n        /* \"#utility.yul\":3918:3927   */\n      dup2\n        /* \"#utility.yul\":3912:3916   */\n      dup2\n        /* \"#utility.yul\":3908:3928   */\n      sub\n        /* \"#utility.yul\":3904:3905   */\n      0x00\n        /* \"#utility.yul\":3893:3902   */\n      dup4\n        /* \"#utility.yul\":3889:3906   */\n      add\n        /* \"#utility.yul\":3882:3929   */\n      mstore\n        /* \"#utility.yul\":3946:4077   */\n      tag_151\n        /* \"#utility.yul\":4072:4076   */\n      dup2\n        /* \"#utility.yul\":3946:4077   */\n      tag_96\n      jump\t// in\n    tag_151:\n        /* \"#utility.yul\":3938:4077   */\n      swap1\n      pop\n        /* \"#utility.yul\":3665:4084   */\n      swap2\n      swap1\n      pop\n      jump\t// out\n        /* \"#utility.yul\":4090:4248   */\n    tag_97:\n        /* \"#utility.yul\":4230:4240   */\n      0x546f6f206c617465000000000000000000000000000000000000000000000000\n        /* \"#utility.yul\":4226:4227   */\n      0x00\n        /* \"#utility.yul\":4218:4224   */\n      dup3\n        /* \"#utility.yul\":4214:4228   */\n      add\n        /* \"#utility.yul\":4207:4241   */\n      mstore\n        /* \"#utility.yul\":4090:4248   */\n      pop\n      jump\t// out\n        /* \"#utility.yul\":4254:4619   */\n    tag_98:\n        /* \"#utility.yul\":4396:4399   */\n      0x00\n        /* \"#utility.yul\":4417:4483   */\n      tag_154\n        /* \"#utility.yul\":4481:4482   */\n      0x08\n        /* \"#utility.yul\":4476:4479   */\n      dup4\n        /* \"#utility.yul\":4417:4483   */\n      tag_94\n      jump\t// in\n    tag_154:\n        /* \"#utility.yul\":4410:4483   */\n      swap2\n      pop\n        /* \"#utility.yul\":4492:4585   */\n      tag_155\n        /* \"#utility.yul\":4581:4584   */\n      dup3\n        /* \"#utility.yul\":4492:4585   */\n      tag_97\n      jump\t// in\n    tag_155:\n        /* \"#utility.yul\":4610:4612   */\n      0x20\n        /* \"#utility.yul\":4605:4608   */\n      dup3\n        /* \"#utility.yul\":4601:4613   */\n      add\n        /* \"#utility.yul\":4594:4613   */\n      swap1\n      pop\n        /* \"#utility.yul\":4254:4619   */\n      swap2\n      swap1\n      pop\n      jump\t// out\n        /* \"#utility.yul\":4625:5044   */\n    tag_40:\n        /* \"#utility.yul\":4791:4795   */\n      0x00\n        /* \"#utility.yul\":4829:4831   */\n      0x20\n        /* \"#utility.yul\":4818:4827   */\n      dup3\n        /* \"#utility.yul\":4814:4832   */\n      add\n        /* \"#utility.yul\":4806:4832   */\n      swap1\n      pop\n        /* \"#utility.yul\":4878:4887   */\n      dup2\n        /* \"#utility.yul\":4872:4876   */\n      dup2\n        /* \"#utility.yul\":4868:4888   */\n      sub\n        /* \"#utility.yul\":4864:4865   */\n      0x00\n        /* \"#utility.yul\":4853:4862   */\n      dup4\n        /* \"#utility.yul\":4849:4866   */\n      add\n        /* \"#utility.yul\":4842:4889   */\n      mstore\n        /* \"#utility.yul\":4906:5037   */\n      tag_157\n        /* \"#utility.yul\":5032:5036   */\n      dup2\n        /* \"#utility.yul\":4906:5037   */\n      tag_98\n      jump\t// in\n    tag_157:\n        /* \"#utility.yul\":4898:5037   */\n      swap1\n      pop\n        /* \"#utility.yul\":4625:5044   */\n      swap2\n      swap1\n      pop\n      jump\t// out\n        /* \"#utility.yul\":5050:5230   */\n    tag_99:\n        /* \"#utility.yul\":5098:5175   */\n      0x4e487b7100000000000000000000000000000000000000000000000000000000\n        /* \"#utility.yul\":5095:5096   */\n      0x00\n        /* \"#utility.yul\":5088:5176   */\n      mstore\n        /* \"#utility.yul\":5195:5199   */\n      0x12\n        /* \"#utility.yul\":5192:5193   */\n      0x04\n        /* \"#utility.yul\":5185:5200   */\n      mstore\n        /* \"#utility.yul\":5219:5223   */\n      0x24\n        /* \"#utility.yul\":5216:5217   */\n      0x00\n        /* \"#utility.yul\":5209:5224   */\n      revert\n        /* \"#utility.yul\":5236:5412   */\n    tag_42:\n        /* \"#utility.yul\":5268:5269   */\n      0x00\n        /* \"#utility.yul\":5285:5305   */\n      tag_160\n        /* \"#utility.yul\":5303:5304   */\n      dup3\n        /* \"#utility.yul\":5285:5305   */\n      tag_88\n      jump\t// in\n    tag_160:\n        /* \"#utility.yul\":5280:5305   */\n      swap2\n      pop\n        /* \"#utility.yul\":5319:5339   */\n      tag_161\n        /* \"#utility.yul\":5337:5338   */\n      dup4\n        /* \"#utility.yul\":5319:5339   */\n      tag_88\n      jump\t// in\n    tag_161:\n        /* \"#utility.yul\":5314:5339   */\n      swap3\n      pop\n        /* \"#utility.yul\":5358:5359   */\n      dup3\n        /* \"#utility.yul\":5348:5383   */\n      tag_162\n      jumpi\n        /* \"#utility.yul\":5363:5381   */\n      tag_163\n      tag_99\n      jump\t// in\n    tag_163:\n        /* \"#utility.yul\":5348:5383   */\n    tag_162:\n        /* \"#utility.yul\":5404:5405   */\n      dup3\n        /* \"#utility.yul\":5401:5402   */\n      dup3\n        /* \"#utility.yul\":5397:5406   */\n      mod\n        /* \"#utility.yul\":5392:5406   */\n      swap1\n      pop\n        /* \"#utility.yul\":5236:5412   */\n      swap3\n      swap2\n      pop\n      pop\n      jump\t// out\n        /* \"#utility.yul\":5418:5828   */\n    tag_45:\n        /* \"#utility.yul\":5458:5465   */\n      0x00\n        /* \"#utility.yul\":5481:5501   */\n      tag_165\n        /* \"#utility.yul\":5499:5500   */\n      dup3\n        /* \"#utility.yul\":5481:5501   */\n      tag_88\n      jump\t// in\n    tag_165:\n        /* \"#utility.yul\":5476:5501   */\n      swap2\n      pop\n        /* \"#utility.yul\":5515:5535   */\n      tag_166\n        /* \"#utility.yul\":5533:5534   */\n      dup4\n        /* \"#utility.yul\":5515:5535   */\n      tag_88\n      jump\t// in\n    tag_166:\n        /* \"#utility.yul\":5510:5535   */\n      swap3\n      pop\n        /* \"#utility.yul\":5570:5571   */\n      dup3\n        /* \"#utility.yul\":5567:5568   */\n      dup3\n        /* \"#utility.yul\":5563:5572   */\n      mul\n        /* \"#utility.yul\":5592:5622   */\n      tag_167\n        /* \"#utility.yul\":5610:5621   */\n      dup2\n        /* \"#utility.yul\":5592:5622   */\n      tag_88\n      jump\t// in\n    tag_167:\n        /* \"#utility.yul\":5581:5622   */\n      swap2\n      pop\n        /* \"#utility.yul\":5771:5772   */\n      dup3\n        /* \"#utility.yul\":5762:5769   */\n      dup3\n        /* \"#utility.yul\":5758:5773   */\n      div\n        /* \"#utility.yul\":5755:5756   */\n      dup5\n        /* \"#utility.yul\":5752:5774   */\n      eq\n        /* \"#utility.yul\":5732:5733   */\n      dup4\n        /* \"#utility.yul\":5725:5734   */\n      iszero\n        /* \"#utility.yul\":5705:5788   */\n      or\n        /* \"#utility.yul\":5682:5821   */\n      tag_168\n      jumpi\n        /* \"#utility.yul\":5801:5819   */\n      tag_169\n      tag_93\n      jump\t// in\n    tag_169:\n        /* \"#utility.yul\":5682:5821   */\n    tag_168:\n        /* \"#utility.yul\":5466:5828   */\n      pop\n        /* \"#utility.yul\":5418:5828   */\n      swap3\n      swap2\n      pop\n      pop\n      jump\t// out\n        /* \"#utility.yul\":5834:5981   */\n    tag_100:\n        /* \"#utility.yul\":5935:5946   */\n      0x00\n        /* \"#utility.yul\":5972:5975   */\n      dup2\n        /* \"#utility.yul\":5957:5975   */\n      swap1\n      pop\n        /* \"#utility.yul\":5834:5981   */\n      swap3\n      swap2\n      pop\n      pop\n      jump\t// out\n        /* \"#utility.yul\":5987:6101   */\n    tag_101:\n      pop\n      jump\t// out\n        /* \"#utility.yul\":6107:6505   */\n    tag_102:\n        /* \"#utility.yul\":6266:6269   */\n      0x00\n        /* \"#utility.yul\":6287:6370   */\n      tag_173\n        /* \"#utility.yul\":6368:6369   */\n      0x00\n        /* \"#utility.yul\":6363:6366   */\n      dup4\n        /* \"#utility.yul\":6287:6370   */\n      tag_100\n      jump\t// in\n    tag_173:\n        /* \"#utility.yul\":6280:6370   */\n      swap2\n      pop\n        /* \"#utility.yul\":6379:6472   */\n      tag_174\n        /* \"#utility.yul\":6468:6471   */\n      dup3\n        /* \"#utility.yul\":6379:6472   */\n      tag_101\n      jump\t// in\n    tag_174:\n        /* \"#utility.yul\":6497:6498   */\n      0x00\n        /* \"#utility.yul\":6492:6495   */\n      dup3\n        /* \"#utility.yul\":6488:6499   */\n      add\n        /* \"#utility.yul\":6481:6499   */\n      swap1\n      pop\n        /* \"#utility.yul\":6107:6505   */\n      swap2\n      swap1\n      pop\n      jump\t// out\n        /* \"#utility.yul\":6511:6890   */\n    tag_47:\n        /* \"#utility.yul\":6695:6698   */\n      0x00\n        /* \"#utility.yul\":6717:6864   */\n      tag_176\n        /* \"#utility.yul\":6860:6863   */\n      dup3\n        /* \"#utility.yul\":6717:6864   */\n      tag_102\n      jump\t// in\n    tag_176:\n        /* \"#utility.yul\":6710:6864   */\n      swap2\n      pop\n        /* \"#utility.yul\":6881:6884   */\n      dup2\n        /* \"#utility.yul\":6874:6884   */\n      swap1\n      pop\n        /* \"#utility.yul\":6511:6890   */\n      swap2\n      swap1\n      pop\n      jump\t// out\n        /* \"#utility.yul\":6896:7062   */\n    tag_103:\n        /* \"#utility.yul\":7036:7054   */\n      0x5472616e73666572206661696c65642e00000000000000000000000000000000\n        /* \"#utility.yul\":7032:7033   */\n      0x00\n        /* \"#utility.yul\":7024:7030   */\n      dup3\n        /* \"#utility.yul\":7020:7034   */\n      add\n        /* \"#utility.yul\":7013:7055   */\n      mstore\n        /* \"#utility.yul\":6896:7062   */\n      pop\n      jump\t// out\n        /* \"#utility.yul\":7068:7434   */\n    tag_104:\n        /* \"#utility.yul\":7210:7213   */\n      0x00\n        /* \"#utility.yul\":7231:7298   */\n      tag_179\n        /* \"#utility.yul\":7295:7297   */\n      0x10\n        /* \"#utility.yul\":7290:7293   */\n      dup4\n        /* \"#utility.yul\":7231:7298   */\n      tag_94\n      jump\t// in\n    tag_179:\n        /* \"#utility.yul\":7224:7298   */\n      swap2\n      pop\n        /* \"#utility.yul\":7307:7400   */\n      tag_180\n        /* \"#utility.yul\":7396:7399   */\n      dup3\n        /* \"#utility.yul\":7307:7400   */\n      tag_103\n      jump\t// in\n    tag_180:\n        /* \"#utility.yul\":7425:7427   */\n      0x20\n        /* \"#utility.yul\":7420:7423   */\n      dup3\n        /* \"#utility.yul\":7416:7428   */\n      add\n        /* \"#utility.yul\":7409:7428   */\n      swap1\n      pop\n        /* \"#utility.yul\":7068:7434   */\n      swap2\n      swap1\n      pop\n      jump\t// out\n        /* \"#utility.yul\":7440:7859   */\n    tag_53:\n        /* \"#utility.yul\":7606:7610   */\n      0x00\n        /* \"#utility.yul\":7644:7646   */\n      0x20\n        /* \"#utility.yul\":7633:7642   */\n      dup3\n        /* \"#utility.yul\":7629:7647   */\n      add\n        /* \"#utility.yul\":7621:7647   */\n      swap1\n      pop\n        /* \"#utility.yul\":7693:7702   */\n      dup2\n        /* \"#utility.yul\":7687:7691   */\n      dup2\n        /* \"#utility.yul\":7683:7703   */\n      sub\n        /* \"#utility.yul\":7679:7680   */\n      0x00\n        /* \"#utility.yul\":7668:7677   */\n      dup4\n        /* \"#utility.yul\":7664:7681   */\n      add\n        /* \"#utility.yul\":7657:7704   */\n      mstore\n        /* \"#utility.yul\":7721:7852   */\n      tag_182\n        /* \"#utility.yul\":7847:7851   */\n      dup2\n        /* \"#utility.yul\":7721:7852   */\n      tag_104\n      jump\t// in\n    tag_182:\n        /* \"#utility.yul\":7713:7852   */\n      swap1\n      pop\n        /* \"#utility.yul\":7440:7859   */\n      swap2\n      swap1\n      pop\n      jump\t// out\n        /* \"#utility.yul\":7865:8045   */\n    tag_58:\n        /* \"#utility.yul\":7913:7990   */\n      0x4e487b7100000000000000000000000000000000000000000000000000000000\n        /* \"#utility.yul\":7910:7911   */\n      0x00\n        /* \"#utility.yul\":7903:7991   */\n      mstore\n        /* \"#utility.yul\":8010:8014   */\n      0x32\n        /* \"#utility.yul\":8007:8008   */\n      0x04\n        /* \"#utility.yul\":8000:8015   */\n      mstore\n        /* \"#utility.yul\":8034:8038   */\n      0x24\n        /* \"#utility.yul\":8031:8032   */\n      0x00\n        /* \"#utility.yul\":8024:8039   */\n      revert\n        /* \"#utility.yul\":8051:8231   */\n    tag_77:\n        /* \"#utility.yul\":8099:8176   */\n      0x4e487b7100000000000000000000000000000000000000000000000000000000\n        /* \"#utility.yul\":8096:8097   */\n      0x00\n        /* \"#utility.yul\":8089:8177   */\n      mstore\n        /* \"#utility.yul\":8196:8200   */\n      0x31\n        /* \"#utility.yul\":8193:8194   */\n      0x04\n        /* \"#utility.yul\":8186:8201   */\n      mstore\n        /* \"#utility.yul\":8220:8224   */\n      0x24\n        /* \"#utility.yul\":8217:8218   */\n      0x00\n        /* \"#utility.yul\":8210:8225   */\n      revert\n\n    auxdata: 0xa2646970667358221220d688a7a95dc4eb60f16b2ef7261c779e959b6d7a7030088436bf199226fcf52d64736f6c63430008130033\n}\n",
				"bytecode": {
					"linkReferences": {},
					"object": "608060405234801561001057600080fd5b50610c1c806100206000396000f3fe6080604052600436106100435760003560e01c806311ec0dde14610057578063736c5b03146100945780638398aefe146100d1578063af8997351461010e57610052565b3661005257610050610118565b005b600080fd5b34801561006357600080fd5b5061007e60048036038101906100799190610804565b610732565b60405161008b919061084a565b60405180910390f35b3480156100a057600080fd5b506100bb60048036038101906100b69190610891565b61074a565b6040516100c891906108cd565b60405180910390f35b3480156100dd57600080fd5b506100f860048036038101906100f39190610804565b610789565b604051610105919061084a565b60405180910390f35b610116610118565b005b6000600160003373ffffffffffffffffffffffffffffffffffffffff1673ffffffffffffffffffffffffffffffffffffffff168152602001908152602001600020549050600081036101fd576080436101719190610917565b600160003373ffffffffffffffffffffffffffffffffffffffff1673ffffffffffffffffffffffffffffffffffffffff16815260200190815260200160002081905550346000803373ffffffffffffffffffffffffffffffffffffffff1673ffffffffffffffffffffffffffffffffffffffff1681526020019081526020016000208190555050610730565b600160003373ffffffffffffffffffffffffffffffffffffffff1673ffffffffffffffffffffffffffffffffffffffff16815260200190815260200160002054431161027e576040517f08c379a0000000000000000000000000000000000000000000000000000000008152600401610275906109a8565b60405180910390fd5b600160003373ffffffffffffffffffffffffffffffffffffffff1673ffffffffffffffffffffffffffffffffffffffff1681526020019081526020016000205443106102ff576040517f08c379a00000000000000000000000000000000000000000000000000000000081526004016102f690610a14565b60405180910390fd5b600044905060006002826103139190610a63565b036106a457600060026000803373ffffffffffffffffffffffffffffffffffffffff1673ffffffffffffffffffffffffffffffffffffffff168152602001908152602001600020546103659190610a94565b905060003373ffffffffffffffffffffffffffffffffffffffff168260405161038d90610b07565b60006040518083038185875af1925050503d80600081146103ca576040519150601f19603f3d011682016040523d82523d6000602084013e6103cf565b606091505b5050905080610413576040517f08c379a000000000000000000000000000000000000000000000000000000000815260040161040a90610b68565b60405180910390fd5b6002339080600181540180825580915050600190039060005260206000200160009091909190916101000a81548173ffffffffffffffffffffffffffffffffffffffff021916908373ffffffffffffffffffffffffffffffffffffffff160217905550600360028054905011156106a157600260018154811061049957610498610b88565b5b9060005260206000200160009054906101000a900473ffffffffffffffffffffffffffffffffffffffff1660026000815481106104d9576104d8610b88565b5b9060005260206000200160006101000a81548173ffffffffffffffffffffffffffffffffffffffff021916908373ffffffffffffffffffffffffffffffffffffffff1602179055506002808154811061053557610534610b88565b5b9060005260206000200160009054906101000a900473ffffffffffffffffffffffffffffffffffffffff16600260018154811061057557610574610b88565b5b9060005260206000200160006101000a81548173ffffffffffffffffffffffffffffffffffffffff021916908373ffffffffffffffffffffffffffffffffffffffff16021790555060026003815481106105d2576105d1610b88565b5b9060005260206000200160009054906101000a900473ffffffffffffffffffffffffffffffffffffffff166002808154811061061157610610610b88565b5b9060005260206000200160006101000a81548173ffffffffffffffffffffffffffffffffffffffff021916908373ffffffffffffffffffffffffffffffffffffffff160217905550600280548061066b5761066a610bb7565b5b6001900381819060005260206000200160006101000a81549073ffffffffffffffffffffffffffffffffffffffff021916905590555b50505b6000600160003373ffffffffffffffffffffffffffffffffffffffff1673ffffffffffffffffffffffffffffffffffffffff1681526020019081526020016000208190555060008060003373ffffffffffffffffffffffffffffffffffffffff1673ffffffffffffffffffffffffffffffffffffffff1681526020019081526020016000208190555050505b565b60006020528060005260406000206000915090505481565b6002818154811061075a57600080fd5b906000526020600020016000915054906101000a900473ffffffffffffffffffffffffffffffffffffffff1681565b60016020528060005260406000206000915090505481565b600080fd5b600073ffffffffffffffffffffffffffffffffffffffff82169050919050565b60006107d1826107a6565b9050919050565b6107e1816107c6565b81146107ec57600080fd5b50565b6000813590506107fe816107d8565b92915050565b60006020828403121561081a576108196107a1565b5b6000610828848285016107ef565b91505092915050565b6000819050919050565b61084481610831565b82525050565b600060208201905061085f600083018461083b565b92915050565b61086e81610831565b811461087957600080fd5b50565b60008135905061088b81610865565b92915050565b6000602082840312156108a7576108a66107a1565b5b60006108b58482850161087c565b91505092915050565b6108c7816107c6565b82525050565b60006020820190506108e260008301846108be565b92915050565b7f4e487b7100000000000000000000000000000000000000000000000000000000600052601160045260246000fd5b600061092282610831565b915061092d83610831565b9250828201905080821115610945576109446108e8565b5b92915050565b600082825260208201905092915050565b7f546f6f206561726c790000000000000000000000000000000000000000000000600082015250565b600061099260098361094b565b915061099d8261095c565b602082019050919050565b600060208201905081810360008301526109c181610985565b9050919050565b7f546f6f206c617465000000000000000000000000000000000000000000000000600082015250565b60006109fe60088361094b565b9150610a09826109c8565b602082019050919050565b60006020820190508181036000830152610a2d816109f1565b9050919050565b7f4e487b7100000000000000000000000000000000000000000000000000000000600052601260045260246000fd5b6000610a6e82610831565b9150610a7983610831565b925082610a8957610a88610a34565b5b828206905092915050565b6000610a9f82610831565b9150610aaa83610831565b9250828202610ab881610831565b91508282048414831517610acf57610ace6108e8565b5b5092915050565b600081905092915050565b50565b6000610af1600083610ad6565b9150610afc82610ae1565b600082019050919050565b6000610b1282610ae4565b9150819050919050565b7f5472616e73666572206661696c65642e00000000000000000000000000000000600082015250565b6000610b5260108361094b565b9150610b5d82610b1c565b602082019050919050565b60006020820190508181036000830152610b8181610b45565b9050919050565b7f4e487b7100000000000000000000000000000000000000000000000000000000600052603260045260246000fd5b7f4e487b7100000000000000000000000000000000000000000000000000000000600052603160045260246000fdfea2646970667358221220d688a7a95dc4eb60f16b2ef7261c779e959b6d7a7030088436bf199226fcf52d64736f6c63430008130033",
					"opcodes": "PUSH1 0x80 PUSH1 0x40 MSTORE CALLVALUE DUP1 ISZERO PUSH2 0x10 JUMPI PUSH1 0x0 DUP1 REVERT JUMPDEST POP PUSH2 0xC1C DUP1 PUSH2 0x20 PUSH1 0x0 CODECOPY PUSH1 0x0 RETURN INVALID PUSH1 0x80 PUSH1 0x40 MSTORE PUSH1 0x4 CALLDATASIZE LT PUSH2 0x43 JUMPI PUSH1 0x0 CALLDATALOAD PUSH1 0xE0 SHR DUP1 PUSH4 0x11EC0DDE EQ PUSH2 0x57 JUMPI DUP1 PUSH4 0x736C5B03 EQ PUSH2 0x94 JUMPI DUP1 PUSH4 0x8398AEFE EQ PUSH2 0xD1 JUMPI DUP1 PUSH4 0xAF899735 EQ PUSH2 0x10E JUMPI PUSH2 0x52 JUMP JUMPDEST CALLDATASIZE PUSH2 0x52 JUMPI PUSH2 0x50 PUSH2 0x118 JUMP JUMPDEST STOP JUMPDEST PUSH1 0x0 DUP1 REVERT JUMPDEST CALLVALUE DUP1 ISZERO PUSH2 0x63 JUMPI PUSH1 0x0 DUP1 REVERT JUMPDEST POP PUSH2 0x7E PUSH1 0x4 DUP1 CALLDATASIZE SUB DUP2 ADD SWAP1 PUSH2 0x79 SWAP2 SWAP1 PUSH2 0x804 JUMP JUMPDEST PUSH2 0x732 JUMP JUMPDEST PUSH1 0x40 MLOAD PUSH2 0x8B SWAP2 SWAP1 PUSH2 0x84A JUMP JUMPDEST PUSH1 0x40 MLOAD DUP1 SWAP2 SUB SWAP1 RETURN JUMPDEST CALLVALUE DUP1 ISZERO PUSH2 0xA0 JUMPI PUSH1 0x0 DUP1 REVERT JUMPDEST POP PUSH2 0xBB PUSH1 0x4 DUP1 CALLDATASIZE SUB DUP2 ADD SWAP1 PUSH2 0xB6 SWAP2 SWAP1 PUSH2 0x891 JUMP JUMPDEST PUSH2 0x74A JUMP JUMPDEST PUSH1 0x40 MLOAD PUSH2 0xC8 SWAP2 SWAP1 PUSH2 0x8CD JUMP JUMPDEST PUSH1 0x40 MLOAD DUP1 SWAP2 SUB SWAP1 RETURN JUMPDEST CALLVALUE DUP1 ISZERO PUSH2 0xDD JUMPI PUSH1 0x0 DUP1 REVERT JUMPDEST POP PUSH2 0xF8 PUSH1 0x4 DUP1 CALLDATASIZE SUB DUP2 ADD SWAP1 PUSH2 0xF3 SWAP2 SWAP1 PUSH2 0x804 JUMP JUMPDEST PUSH2 0x789 JUMP JUMPDEST PUSH1 0x40 MLOAD PUSH2 0x105 SWAP2 SWAP1 PUSH2 0x84A JUMP JUMPDEST PUSH1 0x40 MLOAD DUP1 SWAP2 SUB SWAP1 RETURN JUMPDEST PUSH2 0x116 PUSH2 0x118 JUMP JUMPDEST STOP JUMPDEST PUSH1 0x0 PUSH1 0x1 PUSH1 0x0 CALLER PUSH20 0xFFFFFFFFFFFFFFFFFFFFFFFFFFFFFFFFFFFFFFFF AND PUSH20 0xFFFFFFFFFFFFFFFFFFFFFFFFFFFFFFFFFFFFFFFF AND DUP2 MSTORE PUSH1 0x20 ADD SWAP1 DUP2 MSTORE PUSH1 0x20 ADD PUSH1 0x0 KECCAK256 SLOAD SWAP1 POP PUSH1 0x0 DUP2 SUB PUSH2 0x1FD JUMPI PUSH1 0x80 NUMBER PUSH2 0x171 SWAP2 SWAP1 PUSH2 0x917 JUMP JUMPDEST PUSH1 0x1 PUSH1 0x0 CALLER PUSH20 0xFFFFFFFFFFFFFFFFFFFFFFFFFFFFFFFFFFFFFFFF AND PUSH20 0xFFFFFFFFFFFFFFFFFFFFFFFFFFFFFFFFFFFFFFFF AND DUP2 MSTORE PUSH1 0x20 ADD SWAP1 DUP2 MSTORE PUSH1 0x20 ADD PUSH1 0x0 KECCAK256 DUP2 SWAP1 SSTORE POP CALLVALUE PUSH1 0x0 DUP1 CALLER PUSH20 0xFFFFFFFFFFFFFFFFFFFFFFFFFFFFFFFFFFFFFFFF AND PUSH20 0xFFFFFFFFFFFFFFFFFFFFFFFFFFFFFFFFFFFFFFFF AND DUP2 MSTORE PUSH1 0x20 ADD SWAP1 DUP2 MSTORE PUSH1 0x20 ADD PUSH1 0x0 KECCAK256 DUP2 SWAP1 SSTORE POP POP PUSH2 0x730 JUMP JUMPDEST PUSH1 0x1 PUSH1 0x0 CALLER PUSH20 0xFFFFFFFFFFFFFFFFFFFFFFFFFFFFFFFFFFFFFFFF AND PUSH20 0xFFFFFFFFFFFFFFFFFFFFFFFFFFFFFFFFFFFFFFFF AND DUP2 MSTORE PUSH1 0x20 ADD SWAP1 DUP2 MSTORE PUSH1 0x20 ADD PUSH1 0x0 KECCAK256 SLOAD NUMBER GT PUSH2 0x27E JUMPI PUSH1 0x40 MLOAD PUSH32 0x8C379A000000000000000000000000000000000000000000000000000000000 DUP2 MSTORE PUSH1 0x4 ADD PUSH2 0x275 SWAP1 PUSH2 0x9A8 JUMP JUMPDEST PUSH1 0x40 MLOAD DUP1 SWAP2 SUB SWAP1 REVERT JUMPDEST PUSH1 0x1 PUSH1 0x0 CALLER PUSH20 0xFFFFFFFFFFFFFFFFFFFFFFFFFFFFFFFFFFFFFFFF AND PUSH20 0xFFFFFFFFFFFFFFFFFFFFFFFFFFFFFFFFFFFFFFFF AND DUP2 MSTORE PUSH1 0x20 ADD SWAP1 DUP2 MSTORE PUSH1 0x20 ADD PUSH1 0x0 KECCAK256 SLOAD NUMBER LT PUSH2 0x2FF JUMPI PUSH1 0x40 MLOAD PUSH32 0x8C379A000000000000000000000000000000000000000000000000000000000 DUP2 MSTORE PUSH1 0x4 ADD PUSH2 0x2F6 SWAP1 PUSH2 0xA14 JUMP JUMPDEST PUSH1 0x40 MLOAD DUP1 SWAP2 SUB SWAP1 REVERT JUMPDEST PUSH1 0x0 PREVRANDAO SWAP1 POP PUSH1 0x0 PUSH1 0x2 DUP3 PUSH2 0x313 SWAP2 SWAP1 PUSH2 0xA63 JUMP JUMPDEST SUB PUSH2 0x6A4 JUMPI PUSH1 0x0 PUSH1 0x2 PUSH1 0x0 DUP1 CALLER PUSH20 0xFFFFFFFFFFFFFFFFFFFFFFFFFFFFFFFFFFFFFFFF AND PUSH20 0xFFFFFFFFFFFFFFFFFFFFFFFFFFFFFFFFFFFFFFFF AND DUP2 MSTORE PUSH1 0x20 ADD SWAP1 DUP2 MSTORE PUSH1 0x20 ADD PUSH1 0x0 KECCAK256 SLOAD PUSH2 0x365 SWAP2 SWAP1 PUSH2 0xA94 JUMP JUMPDEST SWAP1 POP PUSH1 0x0 CALLER PUSH20 0xFFFFFFFFFFFFFFFFFFFFFFFFFFFFFFFFFFFFFFFF AND DUP3 PUSH1 0x40 MLOAD PUSH2 0x38D SWAP1 PUSH2 0xB07 JUMP JUMPDEST PUSH1 0x0 PUSH1 0x40 MLOAD DUP1 DUP4 SUB DUP2 DUP6 DUP8 GAS CALL SWAP3 POP POP POP RETURNDATASIZE DUP1 PUSH1 0x0 DUP2 EQ PUSH2 0x3CA JUMPI PUSH1 0x40 MLOAD SWAP2 POP PUSH1 0x1F NOT PUSH1 0x3F RETURNDATASIZE ADD AND DUP3 ADD PUSH1 0x40 MSTORE RETURNDATASIZE DUP3 MSTORE RETURNDATASIZE PUSH1 0x0 PUSH1 0x20 DUP5 ADD RETURNDATACOPY PUSH2 0x3CF JUMP JUMPDEST PUSH1 0x60 SWAP2 POP JUMPDEST POP POP SWAP1 POP DUP1 PUSH2 0x413 JUMPI PUSH1 0x40 MLOAD PUSH32 0x8C379A000000000000000000000000000000000000000000000000000000000 DUP2 MSTORE PUSH1 0x4 ADD PUSH2 0x40A SWAP1 PUSH2 0xB68 JUMP JUMPDEST PUSH1 0x40 MLOAD DUP1 SWAP2 SUB SWAP1 REVERT JUMPDEST PUSH1 0x2 CALLER SWAP1 DUP1 PUSH1 0x1 DUP2 SLOAD ADD DUP1 DUP3 SSTORE DUP1 SWAP2 POP POP PUSH1 0x1 SWAP1 SUB SWAP1 PUSH1 0x0 MSTORE PUSH1 0x20 PUSH1 0x0 KECCAK256 ADD PUSH1 0x0 SWAP1 SWAP2 SWAP1 SWAP2 SWAP1 SWAP2 PUSH2 0x100 EXP DUP2 SLOAD DUP2 PUSH20 0xFFFFFFFFFFFFFFFFFFFFFFFFFFFFFFFFFFFFFFFF MUL NOT AND SWAP1 DUP4 PUSH20 0xFFFFFFFFFFFFFFFFFFFFFFFFFFFFFFFFFFFFFFFF AND MUL OR SWAP1 SSTORE POP PUSH1 0x3 PUSH1 0x2 DUP1 SLOAD SWAP1 POP GT ISZERO PUSH2 0x6A1 JUMPI PUSH1 0x2 PUSH1 0x1 DUP2 SLOAD DUP2 LT PUSH2 0x499 JUMPI PUSH2 0x498 PUSH2 0xB88 JUMP JUMPDEST JUMPDEST SWAP1 PUSH1 0x0 MSTORE PUSH1 0x20 PUSH1 0x0 KECCAK256 ADD PUSH1 0x0 SWAP1 SLOAD SWAP1 PUSH2 0x100 EXP SWAP1 DIV PUSH20 0xFFFFFFFFFFFFFFFFFFFFFFFFFFFFFFFFFFFFFFFF AND PUSH1 0x2 PUSH1 0x0 DUP2 SLOAD DUP2 LT PUSH2 0x4D9 JUMPI PUSH2 0x4D8 PUSH2 0xB88 JUMP JUMPDEST JUMPDEST SWAP1 PUSH1 0x0 MSTORE PUSH1 0x20 PUSH1 0x0 KECCAK256 ADD PUSH1 0x0 PUSH2 0x100 EXP DUP2 SLOAD DUP2 PUSH20 0xFFFFFFFFFFFFFFFFFFFFFFFFFFFFFFFFFFFFFFFF MUL NOT AND SWAP1 DUP4 PUSH20 0xFFFFFFFFFFFFFFFFFFFFFFFFFFFFFFFFFFFFFFFF AND MUL OR SWAP1 SSTORE POP PUSH1 0x2 DUP1 DUP2 SLOAD DUP2 LT PUSH2 0x535 JUMPI PUSH2 0x534 PUSH2 0xB88 JUMP JUMPDEST JUMPDEST SWAP1 PUSH1 0x0 MSTORE PUSH1 0x20 PUSH1 0x0 KECCAK256 ADD PUSH1 0x0 SWAP1 SLOAD SWAP1 PUSH2 0x100 EXP SWAP1 DIV PUSH20 0xFFFFFFFFFFFFFFFFFFFFFFFFFFFFFFFFFFFFFFFF AND PUSH1 0x2 PUSH1 0x1 DUP2 SLOAD DUP2 LT PUSH2 0x575 JUMPI PUSH2 0x574 PUSH2 0xB88 JUMP JUMPDEST JUMPDEST SWAP1 PUSH1 0x0 MSTORE PUSH1 0x20 PUSH1 0x0 KECCAK256 ADD PUSH1 0x0 PUSH2 0x100 EXP DUP2 SLOAD DUP2 PUSH20 0xFFFFFFFFFFFFFFFFFFFFFFFFFFFFFFFFFFFFFFFF MUL NOT AND SWAP1 DUP4 PUSH20 0xFFFFFFFFFFFFFFFFFFFFFFFFFFFFFFFFFFFFFFFF AND MUL OR SWAP1 SSTORE POP PUSH1 0x2 PUSH1 0x3 DUP2 SLOAD DUP2 LT PUSH2 0x5D2 JUMPI PUSH2 0x5D1 PUSH2 0xB88 JUMP JUMPDEST JUMPDEST SWAP1 PUSH1 0x0 MSTORE PUSH1 0x20 PUSH1 0x0 KECCAK256 ADD PUSH1 0x0 SWAP1 SLOAD SWAP1 PUSH2 0x100 EXP SWAP1 DIV PUSH20 0xFFFFFFFFFFFFFFFFFFFFFFFFFFFFFFFFFFFFFFFF AND PUSH1 0x2 DUP1 DUP2 SLOAD DUP2 LT PUSH2 0x611 JUMPI PUSH2 0x610 PUSH2 0xB88 JUMP JUMPDEST JUMPDEST SWAP1 PUSH1 0x0 MSTORE PUSH1 0x20 PUSH1 0x0 KECCAK256 ADD PUSH1 0x0 PUSH2 0x100 EXP DUP2 SLOAD DUP2 PUSH20 0xFFFFFFFFFFFFFFFFFFFFFFFFFFFFFFFFFFFFFFFF MUL NOT AND SWAP1 DUP4 PUSH20 0xFFFFFFFFFFFFFFFFFFFFFFFFFFFFFFFFFFFFFFFF AND MUL OR SWAP1 SSTORE POP PUSH1 0x2 DUP1 SLOAD DUP1 PUSH2 0x66B JUMPI PUSH2 0x66A PUSH2 0xBB7 JUMP JUMPDEST JUMPDEST PUSH1 0x1 SWAP1 SUB DUP2 DUP2 SWAP1 PUSH1 0x0 MSTORE PUSH1 0x20 PUSH1 0x0 KECCAK256 ADD PUSH1 0x0 PUSH2 0x100 EXP DUP2 SLOAD SWAP1 PUSH20 0xFFFFFFFFFFFFFFFFFFFFFFFFFFFFFFFFFFFFFFFF MUL NOT AND SWAP1 SSTORE SWAP1 SSTORE JUMPDEST POP POP JUMPDEST PUSH1 0x0 PUSH1 0x1 PUSH1 0x0 CALLER PUSH20 0xFFFFFFFFFFFFFFFFFFFFFFFFFFFFFFFFFFFFFFFF AND PUSH20 0xFFFFFFFFFFFFFFFFFFFFFFFFFFFFFFFFFFFFFFFF AND DUP2 MSTORE PUSH1 0x20 ADD SWAP1 DUP2 MSTORE PUSH1 0x20 ADD PUSH1 0x0 KECCAK256 DUP2 SWAP1 SSTORE POP PUSH1 0x0 DUP1 PUSH1 0x0 CALLER PUSH20 0xFFFFFFFFFFFFFFFFFFFFFFFFFFFFFFFFFFFFFFFF AND PUSH20 0xFFFFFFFFFFFFFFFFFFFFFFFFFFFFFFFFFFFFFFFF AND DUP2 MSTORE PUSH1 0x20 ADD SWAP1 DUP2 MSTORE PUSH1 0x20 ADD PUSH1 0x0 KECCAK256 DUP2 SWAP1 SSTORE POP POP POP JUMPDEST JUMP JUMPDEST PUSH1 0x0 PUSH1 0x20 MSTORE DUP1 PUSH1 0x0 MSTORE PUSH1 0x40 PUSH1 0x0 KECCAK256 PUSH1 0x0 SWAP2 POP SWAP1 POP SLOAD DUP2 JUMP JUMPDEST PUSH1 0x2 DUP2 DUP2 SLOAD DUP2 LT PUSH2 0x75A JUMPI PUSH1 0x0 DUP1 REVERT JUMPDEST SWAP1 PUSH1 0x0 MSTORE PUSH1 0x20 PUSH1 0x0 KECCAK256 ADD PUSH1 0x0 SWAP2 POP SLOAD SWAP1 PUSH2 0x100 EXP SWAP1 DIV PUSH20 0xFFFFFFFFFFFFFFFFFFFFFFFFFFFFFFFFFFFFFFFF AND DUP2 JUMP JUMPDEST PUSH1 0x1 PUSH1 0x20 MSTORE DUP1 PUSH1 0x0 MSTORE PUSH1 0x40 PUSH1 0x0 KECCAK256 PUSH1 0x0 SWAP2 POP SWAP1 POP SLOAD DUP2 JUMP JUMPDEST PUSH1 0x0 DUP1 REVERT JUMPDEST PUSH1 0x0 PUSH20 0xFFFFFFFFFFFFFFFFFFFFFFFFFFFFFFFFFFFFFFFF DUP3 AND SWAP1 POP SWAP2 SWAP1 POP JUMP JUMPDEST PUSH1 0x0 PUSH2 0x7D1 DUP3 PUSH2 0x7A6 JUMP JUMPDEST SWAP1 POP SWAP2 SWAP1 POP JUMP JUMPDEST PUSH2 0x7E1 DUP2 PUSH2 0x7C6 JUMP JUMPDEST DUP2 EQ PUSH2 0x7EC JUMPI PUSH1 0x0 DUP1 REVERT JUMPDEST POP JUMP JUMPDEST PUSH1 0x0 DUP2 CALLDATALOAD SWAP1 POP PUSH2 0x7FE DUP2 PUSH2 0x7D8 JUMP JUMPDEST SWAP3 SWAP2 POP POP JUMP JUMPDEST PUSH1 0x0 PUSH1 0x20 DUP3 DUP5 SUB SLT ISZERO PUSH2 0x81A JUMPI PUSH2 0x819 PUSH2 0x7A1 JUMP JUMPDEST JUMPDEST PUSH1 0x0 PUSH2 0x828 DUP5 DUP3 DUP6 ADD PUSH2 0x7EF JUMP JUMPDEST SWAP2 POP POP SWAP3 SWAP2 POP POP JUMP JUMPDEST PUSH1 0x0 DUP2 SWAP1 POP SWAP2 SWAP1 POP JUMP JUMPDEST PUSH2 0x844 DUP2 PUSH2 0x831 JUMP JUMPDEST DUP3 MSTORE POP POP JUMP JUMPDEST PUSH1 0x0 PUSH1 0x20 DUP3 ADD SWAP1 POP PUSH2 0x85F PUSH1 0x0 DUP4 ADD DUP5 PUSH2 0x83B JUMP JUMPDEST SWAP3 SWAP2 POP POP JUMP JUMPDEST PUSH2 0x86E DUP2 PUSH2 0x831 JUMP JUMPDEST DUP2 EQ PUSH2 0x879 JUMPI PUSH1 0x0 DUP1 REVERT JUMPDEST POP JUMP JUMPDEST PUSH1 0x0 DUP2 CALLDATALOAD SWAP1 POP PUSH2 0x88B DUP2 PUSH2 0x865 JUMP JUMPDEST SWAP3 SWAP2 POP POP JUMP JUMPDEST PUSH1 0x0 PUSH1 0x20 DUP3 DUP5 SUB SLT ISZERO PUSH2 0x8A7 JUMPI PUSH2 0x8A6 PUSH2 0x7A1 JUMP JUMPDEST JUMPDEST PUSH1 0x0 PUSH2 0x8B5 DUP5 DUP3 DUP6 ADD PUSH2 0x87C JUMP JUMPDEST SWAP2 POP POP SWAP3 SWAP2 POP POP JUMP JUMPDEST PUSH2 0x8C7 DUP2 PUSH2 0x7C6 JUMP JUMPDEST DUP3 MSTORE POP POP JUMP JUMPDEST PUSH1 0x0 PUSH1 0x20 DUP3 ADD SWAP1 POP PUSH2 0x8E2 PUSH1 0x0 DUP4 ADD DUP5 PUSH2 0x8BE JUMP JUMPDEST SWAP3 SWAP2 POP POP JUMP JUMPDEST PUSH32 0x4E487B7100000000000000000000000000000000000000000000000000000000 PUSH1 0x0 MSTORE PUSH1 0x11 PUSH1 0x4 MSTORE PUSH1 0x24 PUSH1 0x0 REVERT JUMPDEST PUSH1 0x0 PUSH2 0x922 DUP3 PUSH2 0x831 JUMP JUMPDEST SWAP2 POP PUSH2 0x92D DUP4 PUSH2 0x831 JUMP JUMPDEST SWAP3 POP DUP3 DUP3 ADD SWAP1 POP DUP1 DUP3 GT ISZERO PUSH2 0x945 JUMPI PUSH2 0x944 PUSH2 0x8E8 JUMP JUMPDEST JUMPDEST SWAP3 SWAP2 POP POP JUMP JUMPDEST PUSH1 0x0 DUP3 DUP3 MSTORE PUSH1 0x20 DUP3 ADD SWAP1 POP SWAP3 SWAP2 POP POP JUMP JUMPDEST PUSH32 0x546F6F206561726C790000000000000000000000000000000000000000000000 PUSH1 0x0 DUP3 ADD MSTORE POP JUMP JUMPDEST PUSH1 0x0 PUSH2 0x992 PUSH1 0x9 DUP4 PUSH2 0x94B JUMP JUMPDEST SWAP2 POP PUSH2 0x99D DUP3 PUSH2 0x95C JUMP JUMPDEST PUSH1 0x20 DUP3 ADD SWAP1 POP SWAP2 SWAP1 POP JUMP JUMPDEST PUSH1 0x0 PUSH1 0x20 DUP3 ADD SWAP1 POP DUP2 DUP2 SUB PUSH1 0x0 DUP4 ADD MSTORE PUSH2 0x9C1 DUP2 PUSH2 0x985 JUMP JUMPDEST SWAP1 POP SWAP2 SWAP1 POP JUMP JUMPDEST PUSH32 0x546F6F206C617465000000000000000000000000000000000000000000000000 PUSH1 0x0 DUP3 ADD MSTORE POP JUMP JUMPDEST PUSH1 0x0 PUSH2 0x9FE PUSH1 0x8 DUP4 PUSH2 0x94B JUMP JUMPDEST SWAP2 POP PUSH2 0xA09 DUP3 PUSH2 0x9C8 JUMP JUMPDEST PUSH1 0x20 DUP3 ADD SWAP1 POP SWAP2 SWAP1 POP JUMP JUMPDEST PUSH1 0x0 PUSH1 0x20 DUP3 ADD SWAP1 POP DUP2 DUP2 SUB PUSH1 0x0 DUP4 ADD MSTORE PUSH2 0xA2D DUP2 PUSH2 0x9F1 JUMP JUMPDEST SWAP1 POP SWAP2 SWAP1 POP JUMP JUMPDEST PUSH32 0x4E487B7100000000000000000000000000000000000000000000000000000000 PUSH1 0x0 MSTORE PUSH1 0x12 PUSH1 0x4 MSTORE PUSH1 0x24 PUSH1 0x0 REVERT JUMPDEST PUSH1 0x0 PUSH2 0xA6E DUP3 PUSH2 0x831 JUMP JUMPDEST SWAP2 POP PUSH2 0xA79 DUP4 PUSH2 0x831 JUMP JUMPDEST SWAP3 POP DUP3 PUSH2 0xA89 JUMPI PUSH2 0xA88 PUSH2 0xA34 JUMP JUMPDEST JUMPDEST DUP3 DUP3 MOD SWAP1 POP SWAP3 SWAP2 POP POP JUMP JUMPDEST PUSH1 0x0 PUSH2 0xA9F DUP3 PUSH2 0x831 JUMP JUMPDEST SWAP2 POP PUSH2 0xAAA DUP4 PUSH2 0x831 JUMP JUMPDEST SWAP3 POP DUP3 DUP3 MUL PUSH2 0xAB8 DUP2 PUSH2 0x831 JUMP JUMPDEST SWAP2 POP DUP3 DUP3 DIV DUP5 EQ DUP4 ISZERO OR PUSH2 0xACF JUMPI PUSH2 0xACE PUSH2 0x8E8 JUMP JUMPDEST JUMPDEST POP SWAP3 SWAP2 POP POP JUMP JUMPDEST PUSH1 0x0 DUP2 SWAP1 POP SWAP3 SWAP2 POP POP JUMP JUMPDEST POP JUMP JUMPDEST PUSH1 0x0 PUSH2 0xAF1 PUSH1 0x0 DUP4 PUSH2 0xAD6 JUMP JUMPDEST SWAP2 POP PUSH2 0xAFC DUP3 PUSH2 0xAE1 JUMP JUMPDEST PUSH1 0x0 DUP3 ADD SWAP1 POP SWAP2 SWAP1 POP JUMP JUMPDEST PUSH1 0x0 PUSH2 0xB12 DUP3 PUSH2 0xAE4 JUMP JUMPDEST SWAP2 POP DUP2 SWAP1 POP SWAP2 SWAP1 POP JUMP JUMPDEST PUSH32 0x5472616E73666572206661696C65642E00000000000000000000000000000000 PUSH1 0x0 DUP3 ADD MSTORE POP JUMP JUMPDEST PUSH1 0x0 PUSH2 0xB52 PUSH1 0x10 DUP4 PUSH2 0x94B JUMP JUMPDEST SWAP2 POP PUSH2 0xB5D DUP3 PUSH2 0xB1C JUMP JUMPDEST PUSH1 0x20 DUP3 ADD SWAP1 POP SWAP2 SWAP1 POP JUMP JUMPDEST PUSH1 0x0 PUSH1 0x20 DUP3 ADD SWAP1 POP DUP2 DUP2 SUB PUSH1 0x0 DUP4 ADD MSTORE PUSH2 0xB81 DUP2 PUSH2 0xB45 JUMP JUMPDEST SWAP1 POP SWAP2 SWAP1 POP JUMP JUMPDEST PUSH32 0x4E487B7100000000000000000000000000000000000000000000000000000000 PUSH1 0x0 MSTORE PUSH1 0x32 PUSH1 0x4 MSTORE PUSH1 0x24 PUSH1 0x0 REVERT JUMPDEST PUSH32 0x4E487B7100000000000000000000000000000000000000000000000000000000 PUSH1 0x0 MSTORE PUSH1 0x31 PUSH1 0x4 MSTORE PUSH1 0x24 PUSH1 0x0 REVERT INVALID LOG2 PUSH5 0x6970667358 0x22 SLT KECCAK256 0xD6 DUP9 0xA7 0xA9 0x5D 0xC4 0xEB PUSH1 0xF1 PUSH12 0x2EF7261C779E959B6D7A7030 ADDMOD DUP5 CALLDATASIZE 0xBF NOT SWAP3 0x26 0xFC CREATE2 0x2D PUSH5 0x736F6C6343 STOP ADDMOD SGT STOP CALLER "
				},
				"gasEstimates": {
					"creation": {
						"codeDepositCost": "620000",
						"executionCost": "651",
						"totalCost": "620651"
					},
					"external": {
						"blockNumbersToBeUsed(address)": "2836",
						"gameWeiValues(address)": "2792",
						"lastThreeWinners(uint256)": "4956",
						"playGame()": "infinite"
					}
				},
				"methodIdentifiers": {
					"blockNumbersToBeUsed(address)": "8398aefe",
					"gameWeiValues(address)": "11ec0dde",
					"lastThreeWinners(uint256)": "736c5b03",
					"playGame()": "af899735"
				}
			},
			"storageLayout": {
				"storage": [
					{
						"astId": 5,
						"contract": "contracts/casino2.sol:DecentralizedCasino",
						"label": "gameWeiValues",
						"offset": 0,
						"slot": "0",
						"type": "t_mapping(t_address,t_uint256)"
					},
					{
						"astId": 9,
						"contract": "contracts/casino2.sol:DecentralizedCasino",
						"label": "blockNumbersToBeUsed",
						"offset": 0,
						"slot": "1",
						"type": "t_mapping(t_address,t_uint256)"
					},
					{
						"astId": 12,
						"contract": "contracts/casino2.sol:DecentralizedCasino",
						"label": "lastThreeWinners",
						"offset": 0,
						"slot": "2",
						"type": "t_array(t_address)dyn_storage"
					}
				],
				"types": {
					"t_address": {
						"encoding": "inplace",
						"label": "address",
						"numberOfBytes": "20"
					},
					"t_array(t_address)dyn_storage": {
						"base": "t_address",
						"encoding": "dynamic_array",
						"label": "address[]",
						"numberOfBytes": "32"
					},
					"t_mapping(t_address,t_uint256)": {
						"encoding": "mapping",
						"key": "t_address",
						"label": "mapping(address => uint256)",
						"numberOfBytes": "32",
						"value": "t_uint256"
					},
					"t_uint256": {
						"encoding": "inplace",
						"label": "uint256",
						"numberOfBytes": "32"
					}
				}
			},
			"userdoc": {
				"kind": "user",
				"methods": {},
				"version": 1
			}
		}
	}
}