{
	"contracts/Casino.sol": {
		"Casino": {
			"abi": [
				{
					"inputs": [],
					"name": "playGame",
					"outputs": [],
					"stateMutability": "payable",
					"type": "function"
				}
			],
			"devdoc": {
				"kind": "dev",
				"methods": {},
				"version": 1
			},
			"evm": {
				"assembly": "    /* \"contracts/Casino.sol\":60:185  contract Casino {... */\n  mstore(0x40, 0x80)\n  callvalue\n  dup1\n  iszero\n  tag_1\n  jumpi\n  0x00\n  dup1\n  revert\ntag_1:\n  pop\n  dataSize(sub_0)\n  dup1\n  dataOffset(sub_0)\n  0x00\n  codecopy\n  0x00\n  return\nstop\n\nsub_0: assembly {\n        /* \"contracts/Casino.sol\":60:185  contract Casino {... */\n      mstore(0x40, 0x80)\n      jumpi(tag_1, lt(calldatasize, 0x04))\n      shr(0xe0, calldataload(0x00))\n      dup1\n      0xaf899735\n      eq\n      tag_2\n      jumpi\n    tag_1:\n      0x00\n      dup1\n      revert\n        /* \"contracts/Casino.sol\":83:182  function playGame() external payable {... */\n    tag_2:\n      tag_3\n      tag_4\n      jump\t// in\n    tag_3:\n      stop\n    tag_4:\n        /* \"contracts/Casino.sol\":131:145  uint256 random */\n      0x00\n        /* \"contracts/Casino.sol\":148:164  block.prevrandao */\n      prevrandao\n        /* \"contracts/Casino.sol\":131:164  uint256 random = block.prevrandao */\n      swap1\n      pop\n        /* \"contracts/Casino.sol\":120:182  {... */\n      pop\n        /* \"contracts/Casino.sol\":83:182  function playGame() external payable {... */\n      jump\t// out\n\n    auxdata: 0xa264697066735822122098076b487dcd8ba01b113e7e4501c2c6c8a894629e3fc765aaae7656e949de6b64736f6c63430008180033\n}\n",
				"bytecode": {
					"linkReferences": {},
					"object": "6080604052348015600e575f80fd5b50606480601a5f395ff3fe608060405260043610601b575f3560e01c8063af89973514601f575b5f80fd5b60256027565b005b5f4490505056fea264697066735822122098076b487dcd8ba01b113e7e4501c2c6c8a894629e3fc765aaae7656e949de6b64736f6c63430008180033",
					"opcodes": "PUSH1 0x80 PUSH1 0x40 MSTORE CALLVALUE DUP1 ISZERO PUSH1 0xE JUMPI PUSH0 DUP1 REVERT JUMPDEST POP PUSH1 0x64 DUP1 PUSH1 0x1A PUSH0 CODECOPY PUSH0 RETURN INVALID PUSH1 0x80 PUSH1 0x40 MSTORE PUSH1 0x4 CALLDATASIZE LT PUSH1 0x1B JUMPI PUSH0 CALLDATALOAD PUSH1 0xE0 SHR DUP1 PUSH4 0xAF899735 EQ PUSH1 0x1F JUMPI JUMPDEST PUSH0 DUP1 REVERT JUMPDEST PUSH1 0x25 PUSH1 0x27 JUMP JUMPDEST STOP JUMPDEST PUSH0 PREVRANDAO SWAP1 POP POP JUMP INVALID LOG2 PUSH5 0x6970667358 0x22 SLT KECCAK256 SWAP9 SMOD PUSH12 0x487DCD8BA01B113E7E4501C2 0xC6 0xC8 0xA8 SWAP5 PUSH3 0x9E3FC7 PUSH6 0xAAAE7656E949 0xDE PUSH12 0x64736F6C6343000818003300 "
				},
				"gasEstimates": {
					"creation": {
						"codeDepositCost": "20000",
						"executionCost": "73",
						"totalCost": "20073"
					},
					"external": {
						"playGame()": "108"
					}
				},
				"methodIdentifiers": {
					"playGame()": "af899735"
				}
			},
			"storageLayout": {
				"storage": [],
				"types": null
			},
			"userdoc": {
				"kind": "user",
				"methods": {},
				"version": 1
			}
		}
	}
}