{
	"data": {
		"bytecode": {
			"linkReferences": {},
			"object": "608060405234801561000f575f80fd5b5061091a8061001d5f395ff3fe608060405260043610610033575f3560e01c806361e07df2146100375780637577493b14610073578063af899735146100af575b5f80fd5b348015610042575f80fd5b5061005d60048036038101906100589190610594565b6100b9565b60405161006a91906105d7565b60405180910390f35b34801561007e575f80fd5b5061009960048036038101906100949190610594565b6100cd565b6040516100a691906105d7565b60405180910390f35b6100b76100e2565b005b5f602052805f5260405f205f915090505481565b6001602052805f5260405f205f915090505481565b5f60015f3373ffffffffffffffffffffffffffffffffffffffff1673ffffffffffffffffffffffffffffffffffffffff1681526020019081526020015f205490506101626040518060400160405280601381526020017f626c6f636b4e756d626572546f426555736564000000000000000000000000008152508261044c565b5f81036102b8576101a86040518060400160405280600c81526020017f426c6f636b204e756d62657200000000000000000000000000000000000000008152504361044c565b6002436101b5919061061d565b60015f3373ffffffffffffffffffffffffffffffffffffffff1673ffffffffffffffffffffffffffffffffffffffff1681526020019081526020015f2081905550345f803373ffffffffffffffffffffffffffffffffffffffff1673ffffffffffffffffffffffffffffffffffffffff1681526020019081526020015f20819055506102b26040518060400160405280601981526020017f67616d6545746856616c7565735b6d73672e73656e6465725d000000000000008152505f803373ffffffffffffffffffffffffffffffffffffffff1673ffffffffffffffffffffffffffffffffffffffff1681526020019081526020015f205461044c565b5061044a565b8043146102fa576040517f08c379a00000000000000000000000000000000000000000000000000000000081526004016102f1906106aa565b60405180910390fd5b5f44905061033d6040518060400160405280600d81526020017f52414e444f4d5f4e554d424552000000000000000000000000000000000000008152508261044c565b5f60028261034b91906106f5565b03610447575f60025f803373ffffffffffffffffffffffffffffffffffffffff1673ffffffffffffffffffffffffffffffffffffffff1681526020019081526020015f205461039a9190610725565b90505f3373ffffffffffffffffffffffffffffffffffffffff16826040516103c190610793565b5f6040518083038185875af1925050503d805f81146103fb576040519150601f19603f3d011682016040523d82523d5f602084013e610400565b606091505b5050905080610444576040517f08c379a000000000000000000000000000000000000000000000000000000000815260040161043b906107f1565b60405180910390fd5b50505b50505b565b6104e48282604051602401610462929190610889565b6040516020818303038152906040527fb60e72cc000000000000000000000000000000000000000000000000000000007bffffffffffffffffffffffffffffffffffffffffffffffffffffffff19166020820180517bffffffffffffffffffffffffffffffffffffffffffffffffffffffff83818316178352505050506104e8565b5050565b6104ff816104f7610502610521565b63ffffffff16565b50565b5f6a636f6e736f6c652e6c6f6790505f80835160208501845afa505050565b61052c819050919050565b6105346108b7565b565b5f80fd5b5f73ffffffffffffffffffffffffffffffffffffffff82169050919050565b5f6105638261053a565b9050919050565b61057381610559565b811461057d575f80fd5b50565b5f8135905061058e8161056a565b92915050565b5f602082840312156105a9576105a8610536565b5b5f6105b684828501610580565b91505092915050565b5f819050919050565b6105d1816105bf565b82525050565b5f6020820190506105ea5f8301846105c8565b92915050565b7f4e487b71000000000000000000000000000000000000000000000000000000005f52601160045260245ffd5b5f610627826105bf565b9150610632836105bf565b925082820190508082111561064a576106496105f0565b5b92915050565b5f82825260208201905092915050565b7f494e434f525245435420424c4f434b00000000000000000000000000000000005f82015250565b5f610694600f83610650565b915061069f82610660565b602082019050919050565b5f6020820190508181035f8301526106c181610688565b9050919050565b7f4e487b71000000000000000000000000000000000000000000000000000000005f52601260045260245ffd5b5f6106ff826105bf565b915061070a836105bf565b92508261071a576107196106c8565b5b828206905092915050565b5f61072f826105bf565b915061073a836105bf565b9250828202610748816105bf565b9150828204841483151761075f5761075e6105f0565b5b5092915050565b5f81905092915050565b50565b5f61077e5f83610766565b915061078982610770565b5f82019050919050565b5f61079d82610773565b9150819050919050565b7f5472616e73666572204661696c656400000000000000000000000000000000005f82015250565b5f6107db600f83610650565b91506107e6826107a7565b602082019050919050565b5f6020820190508181035f830152610808816107cf565b9050919050565b5f81519050919050565b5f5b8381101561083657808201518184015260208101905061081b565b5f8484015250505050565b5f601f19601f8301169050919050565b5f61085b8261080f565b6108658185610650565b9350610875818560208601610819565b61087e81610841565b840191505092915050565b5f6040820190508181035f8301526108a18185610851565b90506108b060208301846105c8565b9392505050565b7f4e487b71000000000000000000000000000000000000000000000000000000005f52605160045260245ffdfea2646970667358221220a5e8293c5736e1bbc6b01405baa5b36ad951d31864803aa84b3cc70c7515133764736f6c63430008180033",
			"opcodes": "PUSH1 0x80 PUSH1 0x40 MSTORE CALLVALUE DUP1 ISZERO PUSH2 0xF JUMPI PUSH0 DUP1 REVERT JUMPDEST POP PUSH2 0x91A DUP1 PUSH2 0x1D PUSH0 CODECOPY PUSH0 RETURN INVALID PUSH1 0x80 PUSH1 0x40 MSTORE PUSH1 0x4 CALLDATASIZE LT PUSH2 0x33 JUMPI PUSH0 CALLDATALOAD PUSH1 0xE0 SHR DUP1 PUSH4 0x61E07DF2 EQ PUSH2 0x37 JUMPI DUP1 PUSH4 0x7577493B EQ PUSH2 0x73 JUMPI DUP1 PUSH4 0xAF899735 EQ PUSH2 0xAF JUMPI JUMPDEST PUSH0 DUP1 REVERT JUMPDEST CALLVALUE DUP1 ISZERO PUSH2 0x42 JUMPI PUSH0 DUP1 REVERT JUMPDEST POP PUSH2 0x5D PUSH1 0x4 DUP1 CALLDATASIZE SUB DUP2 ADD SWAP1 PUSH2 0x58 SWAP2 SWAP1 PUSH2 0x594 JUMP JUMPDEST PUSH2 0xB9 JUMP JUMPDEST PUSH1 0x40 MLOAD PUSH2 0x6A SWAP2 SWAP1 PUSH2 0x5D7 JUMP JUMPDEST PUSH1 0x40 MLOAD DUP1 SWAP2 SUB SWAP1 RETURN JUMPDEST CALLVALUE DUP1 ISZERO PUSH2 0x7E JUMPI PUSH0 DUP1 REVERT JUMPDEST POP PUSH2 0x99 PUSH1 0x4 DUP1 CALLDATASIZE SUB DUP2 ADD SWAP1 PUSH2 0x94 SWAP2 SWAP1 PUSH2 0x594 JUMP JUMPDEST PUSH2 0xCD JUMP JUMPDEST PUSH1 0x40 MLOAD PUSH2 0xA6 SWAP2 SWAP1 PUSH2 0x5D7 JUMP JUMPDEST PUSH1 0x40 MLOAD DUP1 SWAP2 SUB SWAP1 RETURN JUMPDEST PUSH2 0xB7 PUSH2 0xE2 JUMP JUMPDEST STOP JUMPDEST PUSH0 PUSH1 0x20 MSTORE DUP1 PUSH0 MSTORE PUSH1 0x40 PUSH0 KECCAK256 PUSH0 SWAP2 POP SWAP1 POP SLOAD DUP2 JUMP JUMPDEST PUSH1 0x1 PUSH1 0x20 MSTORE DUP1 PUSH0 MSTORE PUSH1 0x40 PUSH0 KECCAK256 PUSH0 SWAP2 POP SWAP1 POP SLOAD DUP2 JUMP JUMPDEST PUSH0 PUSH1 0x1 PUSH0 CALLER PUSH20 0xFFFFFFFFFFFFFFFFFFFFFFFFFFFFFFFFFFFFFFFF AND PUSH20 0xFFFFFFFFFFFFFFFFFFFFFFFFFFFFFFFFFFFFFFFF AND DUP2 MSTORE PUSH1 0x20 ADD SWAP1 DUP2 MSTORE PUSH1 0x20 ADD PUSH0 KECCAK256 SLOAD SWAP1 POP PUSH2 0x162 PUSH1 0x40 MLOAD DUP1 PUSH1 0x40 ADD PUSH1 0x40 MSTORE DUP1 PUSH1 0x13 DUP2 MSTORE PUSH1 0x20 ADD PUSH32 0x626C6F636B4E756D626572546F42655573656400000000000000000000000000 DUP2 MSTORE POP DUP3 PUSH2 0x44C JUMP JUMPDEST PUSH0 DUP2 SUB PUSH2 0x2B8 JUMPI PUSH2 0x1A8 PUSH1 0x40 MLOAD DUP1 PUSH1 0x40 ADD PUSH1 0x40 MSTORE DUP1 PUSH1 0xC DUP2 MSTORE PUSH1 0x20 ADD PUSH32 0x426C6F636B204E756D6265720000000000000000000000000000000000000000 DUP2 MSTORE POP NUMBER PUSH2 0x44C JUMP JUMPDEST PUSH1 0x2 NUMBER PUSH2 0x1B5 SWAP2 SWAP1 PUSH2 0x61D JUMP JUMPDEST PUSH1 0x1 PUSH0 CALLER PUSH20 0xFFFFFFFFFFFFFFFFFFFFFFFFFFFFFFFFFFFFFFFF AND PUSH20 0xFFFFFFFFFFFFFFFFFFFFFFFFFFFFFFFFFFFFFFFF AND DUP2 MSTORE PUSH1 0x20 ADD SWAP1 DUP2 MSTORE PUSH1 0x20 ADD PUSH0 KECCAK256 DUP2 SWAP1 SSTORE POP CALLVALUE PUSH0 DUP1 CALLER PUSH20 0xFFFFFFFFFFFFFFFFFFFFFFFFFFFFFFFFFFFFFFFF AND PUSH20 0xFFFFFFFFFFFFFFFFFFFFFFFFFFFFFFFFFFFFFFFF AND DUP2 MSTORE PUSH1 0x20 ADD SWAP1 DUP2 MSTORE PUSH1 0x20 ADD PUSH0 KECCAK256 DUP2 SWAP1 SSTORE POP PUSH2 0x2B2 PUSH1 0x40 MLOAD DUP1 PUSH1 0x40 ADD PUSH1 0x40 MSTORE DUP1 PUSH1 0x19 DUP2 MSTORE PUSH1 0x20 ADD PUSH32 0x67616D6545746856616C7565735B6D73672E73656E6465725D00000000000000 DUP2 MSTORE POP PUSH0 DUP1 CALLER PUSH20 0xFFFFFFFFFFFFFFFFFFFFFFFFFFFFFFFFFFFFFFFF AND PUSH20 0xFFFFFFFFFFFFFFFFFFFFFFFFFFFFFFFFFFFFFFFF AND DUP2 MSTORE PUSH1 0x20 ADD SWAP1 DUP2 MSTORE PUSH1 0x20 ADD PUSH0 KECCAK256 SLOAD PUSH2 0x44C JUMP JUMPDEST POP PUSH2 0x44A JUMP JUMPDEST DUP1 NUMBER EQ PUSH2 0x2FA JUMPI PUSH1 0x40 MLOAD PUSH32 0x8C379A000000000000000000000000000000000000000000000000000000000 DUP2 MSTORE PUSH1 0x4 ADD PUSH2 0x2F1 SWAP1 PUSH2 0x6AA JUMP JUMPDEST PUSH1 0x40 MLOAD DUP1 SWAP2 SUB SWAP1 REVERT JUMPDEST PUSH0 PREVRANDAO SWAP1 POP PUSH2 0x33D PUSH1 0x40 MLOAD DUP1 PUSH1 0x40 ADD PUSH1 0x40 MSTORE DUP1 PUSH1 0xD DUP2 MSTORE PUSH1 0x20 ADD PUSH32 0x52414E444F4D5F4E554D42455200000000000000000000000000000000000000 DUP2 MSTORE POP DUP3 PUSH2 0x44C JUMP JUMPDEST PUSH0 PUSH1 0x2 DUP3 PUSH2 0x34B SWAP2 SWAP1 PUSH2 0x6F5 JUMP JUMPDEST SUB PUSH2 0x447 JUMPI PUSH0 PUSH1 0x2 PUSH0 DUP1 CALLER PUSH20 0xFFFFFFFFFFFFFFFFFFFFFFFFFFFFFFFFFFFFFFFF AND PUSH20 0xFFFFFFFFFFFFFFFFFFFFFFFFFFFFFFFFFFFFFFFF AND DUP2 MSTORE PUSH1 0x20 ADD SWAP1 DUP2 MSTORE PUSH1 0x20 ADD PUSH0 KECCAK256 SLOAD PUSH2 0x39A SWAP2 SWAP1 PUSH2 0x725 JUMP JUMPDEST SWAP1 POP PUSH0 CALLER PUSH20 0xFFFFFFFFFFFFFFFFFFFFFFFFFFFFFFFFFFFFFFFF AND DUP3 PUSH1 0x40 MLOAD PUSH2 0x3C1 SWAP1 PUSH2 0x793 JUMP JUMPDEST PUSH0 PUSH1 0x40 MLOAD DUP1 DUP4 SUB DUP2 DUP6 DUP8 GAS CALL SWAP3 POP POP POP RETURNDATASIZE DUP1 PUSH0 DUP2 EQ PUSH2 0x3FB JUMPI PUSH1 0x40 MLOAD SWAP2 POP PUSH1 0x1F NOT PUSH1 0x3F RETURNDATASIZE ADD AND DUP3 ADD PUSH1 0x40 MSTORE RETURNDATASIZE DUP3 MSTORE RETURNDATASIZE PUSH0 PUSH1 0x20 DUP5 ADD RETURNDATACOPY PUSH2 0x400 JUMP JUMPDEST PUSH1 0x60 SWAP2 POP JUMPDEST POP POP SWAP1 POP DUP1 PUSH2 0x444 JUMPI PUSH1 0x40 MLOAD PUSH32 0x8C379A000000000000000000000000000000000000000000000000000000000 DUP2 MSTORE PUSH1 0x4 ADD PUSH2 0x43B SWAP1 PUSH2 0x7F1 JUMP JUMPDEST PUSH1 0x40 MLOAD DUP1 SWAP2 SUB SWAP1 REVERT JUMPDEST POP POP JUMPDEST POP POP JUMPDEST JUMP JUMPDEST PUSH2 0x4E4 DUP3 DUP3 PUSH1 0x40 MLOAD PUSH1 0x24 ADD PUSH2 0x462 SWAP3 SWAP2 SWAP1 PUSH2 0x889 JUMP JUMPDEST PUSH1 0x40 MLOAD PUSH1 0x20 DUP2 DUP4 SUB SUB DUP2 MSTORE SWAP1 PUSH1 0x40 MSTORE PUSH32 0xB60E72CC00000000000000000000000000000000000000000000000000000000 PUSH28 0xFFFFFFFFFFFFFFFFFFFFFFFFFFFFFFFFFFFFFFFFFFFFFFFFFFFFFFFF NOT AND PUSH1 0x20 DUP3 ADD DUP1 MLOAD PUSH28 0xFFFFFFFFFFFFFFFFFFFFFFFFFFFFFFFFFFFFFFFFFFFFFFFFFFFFFFFF DUP4 DUP2 DUP4 AND OR DUP4 MSTORE POP POP POP POP PUSH2 0x4E8 JUMP JUMPDEST POP POP JUMP JUMPDEST PUSH2 0x4FF DUP2 PUSH2 0x4F7 PUSH2 0x502 PUSH2 0x521 JUMP JUMPDEST PUSH4 0xFFFFFFFF AND JUMP JUMPDEST POP JUMP JUMPDEST PUSH0 PUSH11 0x636F6E736F6C652E6C6F67 SWAP1 POP PUSH0 DUP1 DUP4 MLOAD PUSH1 0x20 DUP6 ADD DUP5 GAS STATICCALL POP POP POP JUMP JUMPDEST PUSH2 0x52C DUP2 SWAP1 POP SWAP2 SWAP1 POP JUMP JUMPDEST PUSH2 0x534 PUSH2 0x8B7 JUMP JUMPDEST JUMP JUMPDEST PUSH0 DUP1 REVERT JUMPDEST PUSH0 PUSH20 0xFFFFFFFFFFFFFFFFFFFFFFFFFFFFFFFFFFFFFFFF DUP3 AND SWAP1 POP SWAP2 SWAP1 POP JUMP JUMPDEST PUSH0 PUSH2 0x563 DUP3 PUSH2 0x53A JUMP JUMPDEST SWAP1 POP SWAP2 SWAP1 POP JUMP JUMPDEST PUSH2 0x573 DUP2 PUSH2 0x559 JUMP JUMPDEST DUP2 EQ PUSH2 0x57D JUMPI PUSH0 DUP1 REVERT JUMPDEST POP JUMP JUMPDEST PUSH0 DUP2 CALLDATALOAD SWAP1 POP PUSH2 0x58E DUP2 PUSH2 0x56A JUMP JUMPDEST SWAP3 SWAP2 POP POP JUMP JUMPDEST PUSH0 PUSH1 0x20 DUP3 DUP5 SUB SLT ISZERO PUSH2 0x5A9 JUMPI PUSH2 0x5A8 PUSH2 0x536 JUMP JUMPDEST JUMPDEST PUSH0 PUSH2 0x5B6 DUP5 DUP3 DUP6 ADD PUSH2 0x580 JUMP JUMPDEST SWAP2 POP POP SWAP3 SWAP2 POP POP JUMP JUMPDEST PUSH0 DUP2 SWAP1 POP SWAP2 SWAP1 POP JUMP JUMPDEST PUSH2 0x5D1 DUP2 PUSH2 0x5BF JUMP JUMPDEST DUP3 MSTORE POP POP JUMP JUMPDEST PUSH0 PUSH1 0x20 DUP3 ADD SWAP1 POP PUSH2 0x5EA PUSH0 DUP4 ADD DUP5 PUSH2 0x5C8 JUMP JUMPDEST SWAP3 SWAP2 POP POP JUMP JUMPDEST PUSH32 0x4E487B7100000000000000000000000000000000000000000000000000000000 PUSH0 MSTORE PUSH1 0x11 PUSH1 0x4 MSTORE PUSH1 0x24 PUSH0 REVERT JUMPDEST PUSH0 PUSH2 0x627 DUP3 PUSH2 0x5BF JUMP JUMPDEST SWAP2 POP PUSH2 0x632 DUP4 PUSH2 0x5BF JUMP JUMPDEST SWAP3 POP DUP3 DUP3 ADD SWAP1 POP DUP1 DUP3 GT ISZERO PUSH2 0x64A JUMPI PUSH2 0x649 PUSH2 0x5F0 JUMP JUMPDEST JUMPDEST SWAP3 SWAP2 POP POP JUMP JUMPDEST PUSH0 DUP3 DUP3 MSTORE PUSH1 0x20 DUP3 ADD SWAP1 POP SWAP3 SWAP2 POP POP JUMP JUMPDEST PUSH32 0x494E434F525245435420424C4F434B0000000000000000000000000000000000 PUSH0 DUP3 ADD MSTORE POP JUMP JUMPDEST PUSH0 PUSH2 0x694 PUSH1 0xF DUP4 PUSH2 0x650 JUMP JUMPDEST SWAP2 POP PUSH2 0x69F DUP3 PUSH2 0x660 JUMP JUMPDEST PUSH1 0x20 DUP3 ADD SWAP1 POP SWAP2 SWAP1 POP JUMP JUMPDEST PUSH0 PUSH1 0x20 DUP3 ADD SWAP1 POP DUP2 DUP2 SUB PUSH0 DUP4 ADD MSTORE PUSH2 0x6C1 DUP2 PUSH2 0x688 JUMP JUMPDEST SWAP1 POP SWAP2 SWAP1 POP JUMP JUMPDEST PUSH32 0x4E487B7100000000000000000000000000000000000000000000000000000000 PUSH0 MSTORE PUSH1 0x12 PUSH1 0x4 MSTORE PUSH1 0x24 PUSH0 REVERT JUMPDEST PUSH0 PUSH2 0x6FF DUP3 PUSH2 0x5BF JUMP JUMPDEST SWAP2 POP PUSH2 0x70A DUP4 PUSH2 0x5BF JUMP JUMPDEST SWAP3 POP DUP3 PUSH2 0x71A JUMPI PUSH2 0x719 PUSH2 0x6C8 JUMP JUMPDEST JUMPDEST DUP3 DUP3 MOD SWAP1 POP SWAP3 SWAP2 POP POP JUMP JUMPDEST PUSH0 PUSH2 0x72F DUP3 PUSH2 0x5BF JUMP JUMPDEST SWAP2 POP PUSH2 0x73A DUP4 PUSH2 0x5BF JUMP JUMPDEST SWAP3 POP DUP3 DUP3 MUL PUSH2 0x748 DUP2 PUSH2 0x5BF JUMP JUMPDEST SWAP2 POP DUP3 DUP3 DIV DUP5 EQ DUP4 ISZERO OR PUSH2 0x75F JUMPI PUSH2 0x75E PUSH2 0x5F0 JUMP JUMPDEST JUMPDEST POP SWAP3 SWAP2 POP POP JUMP JUMPDEST PUSH0 DUP2 SWAP1 POP SWAP3 SWAP2 POP POP JUMP JUMPDEST POP JUMP JUMPDEST PUSH0 PUSH2 0x77E PUSH0 DUP4 PUSH2 0x766 JUMP JUMPDEST SWAP2 POP PUSH2 0x789 DUP3 PUSH2 0x770 JUMP JUMPDEST PUSH0 DUP3 ADD SWAP1 POP SWAP2 SWAP1 POP JUMP JUMPDEST PUSH0 PUSH2 0x79D DUP3 PUSH2 0x773 JUMP JUMPDEST SWAP2 POP DUP2 SWAP1 POP SWAP2 SWAP1 POP JUMP JUMPDEST PUSH32 0x5472616E73666572204661696C65640000000000000000000000000000000000 PUSH0 DUP3 ADD MSTORE POP JUMP JUMPDEST PUSH0 PUSH2 0x7DB PUSH1 0xF DUP4 PUSH2 0x650 JUMP JUMPDEST SWAP2 POP PUSH2 0x7E6 DUP3 PUSH2 0x7A7 JUMP JUMPDEST PUSH1 0x20 DUP3 ADD SWAP1 POP SWAP2 SWAP1 POP JUMP JUMPDEST PUSH0 PUSH1 0x20 DUP3 ADD SWAP1 POP DUP2 DUP2 SUB PUSH0 DUP4 ADD MSTORE PUSH2 0x808 DUP2 PUSH2 0x7CF JUMP JUMPDEST SWAP1 POP SWAP2 SWAP1 POP JUMP JUMPDEST PUSH0 DUP2 MLOAD SWAP1 POP SWAP2 SWAP1 POP JUMP JUMPDEST PUSH0 JUMPDEST DUP4 DUP2 LT ISZERO PUSH2 0x836 JUMPI DUP1 DUP3 ADD MLOAD DUP2 DUP5 ADD MSTORE PUSH1 0x20 DUP2 ADD SWAP1 POP PUSH2 0x81B JUMP JUMPDEST PUSH0 DUP5 DUP5 ADD MSTORE POP POP POP POP JUMP JUMPDEST PUSH0 PUSH1 0x1F NOT PUSH1 0x1F DUP4 ADD AND SWAP1 POP SWAP2 SWAP1 POP JUMP JUMPDEST PUSH0 PUSH2 0x85B DUP3 PUSH2 0x80F JUMP JUMPDEST PUSH2 0x865 DUP2 DUP6 PUSH2 0x650 JUMP JUMPDEST SWAP4 POP PUSH2 0x875 DUP2 DUP6 PUSH1 0x20 DUP7 ADD PUSH2 0x819 JUMP JUMPDEST PUSH2 0x87E DUP2 PUSH2 0x841 JUMP JUMPDEST DUP5 ADD SWAP2 POP POP SWAP3 SWAP2 POP POP JUMP JUMPDEST PUSH0 PUSH1 0x40 DUP3 ADD SWAP1 POP DUP2 DUP2 SUB PUSH0 DUP4 ADD MSTORE PUSH2 0x8A1 DUP2 DUP6 PUSH2 0x851 JUMP JUMPDEST SWAP1 POP PUSH2 0x8B0 PUSH1 0x20 DUP4 ADD DUP5 PUSH2 0x5C8 JUMP JUMPDEST SWAP4 SWAP3 POP POP POP JUMP JUMPDEST PUSH32 0x4E487B7100000000000000000000000000000000000000000000000000000000 PUSH0 MSTORE PUSH1 0x51 PUSH1 0x4 MSTORE PUSH1 0x24 PUSH0 REVERT INVALID LOG2 PUSH5 0x6970667358 0x22 SLT KECCAK256 0xA5 0xE8 0x29 EXTCODECOPY JUMPI CALLDATASIZE 0xE1 0xBB 0xC6 0xB0 EQ SDIV 0xBA 0xA5 0xB3 PUSH11 0xD951D31864803AA84B3CC7 0xC PUSH22 0x15133764736F6C634300081800330000000000000000 "
		},
		"gasEstimates": {
			"creation": {
				"codeDepositCost": "466000",
				"executionCost": "497",
				"totalCost": "466497"
			},
			"external": {
				"blockNumbersToBeUsedMapping(address)": "2802",
				"gameEthValues(address)": "2779",
				"playGame()": "infinite"
			}
		},
		"methodIdentifiers": {
			"blockNumbersToBeUsedMapping(address)": "7577493b",
			"gameEthValues(address)": "61e07df2",
			"playGame()": "af899735"
		}
	},
	"abi": [
		{
			"inputs": [
				{
					"internalType": "address",
					"name": "",
					"type": "address"
				}
			],
			"name": "blockNumbersToBeUsedMapping",
			"outputs": [
				{
					"internalType": "uint256",
					"name": "",
					"type": "uint256"
				}
			],
			"stateMutability": "view",
			"type": "function"
		},
		{
			"inputs": [
				{
					"internalType": "address",
					"name": "",
					"type": "address"
				}
			],
			"name": "gameEthValues",
			"outputs": [
				{
					"internalType": "uint256",
					"name": "",
					"type": "uint256"
				}
			],
			"stateMutability": "view",
			"type": "function"
		},
		{
			"inputs": [],
			"name": "playGame",
			"outputs": [],
			"stateMutability": "payable",
			"type": "function"
		}
	]
}