{
	"data": {
		"bytecode": {
			"linkReferences": {},
			"object": "608060405273779877a7b0d9e8603169ddbd7836e478b462478960025f6101000a81548173ffffffffffffffffffffffffffffffffffffffff021916908373ffffffffffffffffffffffffffffffffffffffff160217905550738103b0a8a00be2ddc778e6e7eaa21791cd36462560035f6101000a81548173ffffffffffffffffffffffffffffffffffffffff021916908373ffffffffffffffffffffffffffffffffffffffff1602179055503480156100b7575f80fd5b50610999806100c55f395ff3fe60806040526004361061003e575f3560e01c806361e07df2146100425780637577493b1461007e578063aa07b2ff146100ba578063af899735146100c4575b5f80fd5b34801561004d575f80fd5b50610068600480360381019061006391906105b0565b6100ce565b60405161007591906105f3565b60405180910390f35b348015610089575f80fd5b506100a4600480360381019061009f91906105b0565b6100e2565b6040516100b191906105f3565b60405180910390f35b6100c26100f7565b005b6100cc6100f9565b005b5f602052805f5260405f205f915090505481565b6001602052805f5260405f205f915090505481565b565b6101386040518060400160405280600c81526020017f426c6f636b204e756d626572000000000000000000000000000000000000000081525043610468565b5f60015f3373ffffffffffffffffffffffffffffffffffffffff1673ffffffffffffffffffffffffffffffffffffffff1681526020019081526020015f205490506101b86040518060400160405280601381526020017f626c6f636b4e756d626572546f4265557365640000000000000000000000000081525082610468565b5f81036102d4576101e16040518060600160405280602b8152602001610901602b913943610468565b6080436101ee9190610639565b60015f3373ffffffffffffffffffffffffffffffffffffffff1673ffffffffffffffffffffffffffffffffffffffff1681526020019081526020015f2081905550345f803373ffffffffffffffffffffffffffffffffffffffff1673ffffffffffffffffffffffffffffffffffffffff1681526020019081526020015f20819055506102ce60405180606001604052806038815260200161092c603891395f803373ffffffffffffffffffffffffffffffffffffffff1673ffffffffffffffffffffffffffffffffffffffff1681526020019081526020015f2054610468565b50610466565b804314610316576040517f08c379a000000000000000000000000000000000000000000000000000000000815260040161030d906106c6565b60405180910390fd5b5f4490506103596040518060400160405280600d81526020017f52414e444f4d5f4e554d4245520000000000000000000000000000000000000081525082610468565b5f6002826103679190610711565b03610463575f60025f803373ffffffffffffffffffffffffffffffffffffffff1673ffffffffffffffffffffffffffffffffffffffff1681526020019081526020015f20546103b69190610741565b90505f3373ffffffffffffffffffffffffffffffffffffffff16826040516103dd906107af565b5f6040518083038185875af1925050503d805f8114610417576040519150601f19603f3d011682016040523d82523d5f602084013e61041c565b606091505b5050905080610460576040517f08c379a00000000000000000000000000000000000000000000000000000000081526004016104579061080d565b60405180910390fd5b50505b50505b565b610500828260405160240161047e9291906108a5565b6040516020818303038152906040527fb60e72cc000000000000000000000000000000000000000000000000000000007bffffffffffffffffffffffffffffffffffffffffffffffffffffffff19166020820180517bffffffffffffffffffffffffffffffffffffffffffffffffffffffff8381831617835250505050610504565b5050565b61051b8161051361051e61053d565b63ffffffff16565b50565b5f6a636f6e736f6c652e6c6f6790505f80835160208501845afa505050565b610548819050919050565b6105506108d3565b565b5f80fd5b5f73ffffffffffffffffffffffffffffffffffffffff82169050919050565b5f61057f82610556565b9050919050565b61058f81610575565b8114610599575f80fd5b50565b5f813590506105aa81610586565b92915050565b5f602082840312156105c5576105c4610552565b5b5f6105d28482850161059c565b91505092915050565b5f819050919050565b6105ed816105db565b82525050565b5f6020820190506106065f8301846105e4565b92915050565b7f4e487b71000000000000000000000000000000000000000000000000000000005f52601160045260245ffd5b5f610643826105db565b915061064e836105db565b92508282019050808211156106665761066561060c565b5b92915050565b5f82825260208201905092915050565b7f494e434f525245435420424c4f434b00000000000000000000000000000000005f82015250565b5f6106b0600f8361066c565b91506106bb8261067c565b602082019050919050565b5f6020820190508181035f8301526106dd816106a4565b9050919050565b7f4e487b71000000000000000000000000000000000000000000000000000000005f52601260045260245ffd5b5f61071b826105db565b9150610726836105db565b925082610736576107356106e4565b5b828206905092915050565b5f61074b826105db565b9150610756836105db565b9250828202610764816105db565b9150828204841483151761077b5761077a61060c565b5b5092915050565b5f81905092915050565b50565b5f61079a5f83610782565b91506107a58261078c565b5f82019050919050565b5f6107b98261078f565b9150819050919050565b7f5472616e73666572204661696c656400000000000000000000000000000000005f82015250565b5f6107f7600f8361066c565b9150610802826107c3565b602082019050919050565b5f6020820190508181035f830152610824816107eb565b9050919050565b5f81519050919050565b5f5b83811015610852578082015181840152602081019050610837565b5f8484015250505050565b5f601f19601f8301169050919050565b5f6108778261082b565b610881818561066c565b9350610891818560208601610835565b61089a8161085d565b840191505092915050565b5f6040820190508181035f8301526108bd818561086d565b90506108cc60208301846105e4565b9392505050565b7f4e487b71000000000000000000000000000000000000000000000000000000005f52605160045260245ffdfe426c6f636b204e756d6265722c205748454e20626c6f636b4e756d626572546f426555736564203d3d203067616d6545746856616c7565735b6d73672e73656e6465725d2c205748454e20626c6f636b4e756d626572546f426555736564203d3d2030a2646970667358221220bb4a05e75f791b086122a0c04bc45eada9a76fb45f487085b51a718e3bd0951164736f6c63430008180033",
			"opcodes": "PUSH1 0x80 PUSH1 0x40 MSTORE PUSH20 0x779877A7B0D9E8603169DDBD7836E478B4624789 PUSH1 0x2 PUSH0 PUSH2 0x100 EXP DUP2 SLOAD DUP2 PUSH20 0xFFFFFFFFFFFFFFFFFFFFFFFFFFFFFFFFFFFFFFFF MUL NOT AND SWAP1 DUP4 PUSH20 0xFFFFFFFFFFFFFFFFFFFFFFFFFFFFFFFFFFFFFFFF AND MUL OR SWAP1 SSTORE POP PUSH20 0x8103B0A8A00BE2DDC778E6E7EAA21791CD364625 PUSH1 0x3 PUSH0 PUSH2 0x100 EXP DUP2 SLOAD DUP2 PUSH20 0xFFFFFFFFFFFFFFFFFFFFFFFFFFFFFFFFFFFFFFFF MUL NOT AND SWAP1 DUP4 PUSH20 0xFFFFFFFFFFFFFFFFFFFFFFFFFFFFFFFFFFFFFFFF AND MUL OR SWAP1 SSTORE POP CALLVALUE DUP1 ISZERO PUSH2 0xB7 JUMPI PUSH0 DUP1 REVERT JUMPDEST POP PUSH2 0x999 DUP1 PUSH2 0xC5 PUSH0 CODECOPY PUSH0 RETURN INVALID PUSH1 0x80 PUSH1 0x40 MSTORE PUSH1 0x4 CALLDATASIZE LT PUSH2 0x3E JUMPI PUSH0 CALLDATALOAD PUSH1 0xE0 SHR DUP1 PUSH4 0x61E07DF2 EQ PUSH2 0x42 JUMPI DUP1 PUSH4 0x7577493B EQ PUSH2 0x7E JUMPI DUP1 PUSH4 0xAA07B2FF EQ PUSH2 0xBA JUMPI DUP1 PUSH4 0xAF899735 EQ PUSH2 0xC4 JUMPI JUMPDEST PUSH0 DUP1 REVERT JUMPDEST CALLVALUE DUP1 ISZERO PUSH2 0x4D JUMPI PUSH0 DUP1 REVERT JUMPDEST POP PUSH2 0x68 PUSH1 0x4 DUP1 CALLDATASIZE SUB DUP2 ADD SWAP1 PUSH2 0x63 SWAP2 SWAP1 PUSH2 0x5B0 JUMP JUMPDEST PUSH2 0xCE JUMP JUMPDEST PUSH1 0x40 MLOAD PUSH2 0x75 SWAP2 SWAP1 PUSH2 0x5F3 JUMP JUMPDEST PUSH1 0x40 MLOAD DUP1 SWAP2 SUB SWAP1 RETURN JUMPDEST CALLVALUE DUP1 ISZERO PUSH2 0x89 JUMPI PUSH0 DUP1 REVERT JUMPDEST POP PUSH2 0xA4 PUSH1 0x4 DUP1 CALLDATASIZE SUB DUP2 ADD SWAP1 PUSH2 0x9F SWAP2 SWAP1 PUSH2 0x5B0 JUMP JUMPDEST PUSH2 0xE2 JUMP JUMPDEST PUSH1 0x40 MLOAD PUSH2 0xB1 SWAP2 SWAP1 PUSH2 0x5F3 JUMP JUMPDEST PUSH1 0x40 MLOAD DUP1 SWAP2 SUB SWAP1 RETURN JUMPDEST PUSH2 0xC2 PUSH2 0xF7 JUMP JUMPDEST STOP JUMPDEST PUSH2 0xCC PUSH2 0xF9 JUMP JUMPDEST STOP JUMPDEST PUSH0 PUSH1 0x20 MSTORE DUP1 PUSH0 MSTORE PUSH1 0x40 PUSH0 KECCAK256 PUSH0 SWAP2 POP SWAP1 POP SLOAD DUP2 JUMP JUMPDEST PUSH1 0x1 PUSH1 0x20 MSTORE DUP1 PUSH0 MSTORE PUSH1 0x40 PUSH0 KECCAK256 PUSH0 SWAP2 POP SWAP1 POP SLOAD DUP2 JUMP JUMPDEST JUMP JUMPDEST PUSH2 0x138 PUSH1 0x40 MLOAD DUP1 PUSH1 0x40 ADD PUSH1 0x40 MSTORE DUP1 PUSH1 0xC DUP2 MSTORE PUSH1 0x20 ADD PUSH32 0x426C6F636B204E756D6265720000000000000000000000000000000000000000 DUP2 MSTORE POP NUMBER PUSH2 0x468 JUMP JUMPDEST PUSH0 PUSH1 0x1 PUSH0 CALLER PUSH20 0xFFFFFFFFFFFFFFFFFFFFFFFFFFFFFFFFFFFFFFFF AND PUSH20 0xFFFFFFFFFFFFFFFFFFFFFFFFFFFFFFFFFFFFFFFF AND DUP2 MSTORE PUSH1 0x20 ADD SWAP1 DUP2 MSTORE PUSH1 0x20 ADD PUSH0 KECCAK256 SLOAD SWAP1 POP PUSH2 0x1B8 PUSH1 0x40 MLOAD DUP1 PUSH1 0x40 ADD PUSH1 0x40 MSTORE DUP1 PUSH1 0x13 DUP2 MSTORE PUSH1 0x20 ADD PUSH32 0x626C6F636B4E756D626572546F42655573656400000000000000000000000000 DUP2 MSTORE POP DUP3 PUSH2 0x468 JUMP JUMPDEST PUSH0 DUP2 SUB PUSH2 0x2D4 JUMPI PUSH2 0x1E1 PUSH1 0x40 MLOAD DUP1 PUSH1 0x60 ADD PUSH1 0x40 MSTORE DUP1 PUSH1 0x2B DUP2 MSTORE PUSH1 0x20 ADD PUSH2 0x901 PUSH1 0x2B SWAP2 CODECOPY NUMBER PUSH2 0x468 JUMP JUMPDEST PUSH1 0x80 NUMBER PUSH2 0x1EE SWAP2 SWAP1 PUSH2 0x639 JUMP JUMPDEST PUSH1 0x1 PUSH0 CALLER PUSH20 0xFFFFFFFFFFFFFFFFFFFFFFFFFFFFFFFFFFFFFFFF AND PUSH20 0xFFFFFFFFFFFFFFFFFFFFFFFFFFFFFFFFFFFFFFFF AND DUP2 MSTORE PUSH1 0x20 ADD SWAP1 DUP2 MSTORE PUSH1 0x20 ADD PUSH0 KECCAK256 DUP2 SWAP1 SSTORE POP CALLVALUE PUSH0 DUP1 CALLER PUSH20 0xFFFFFFFFFFFFFFFFFFFFFFFFFFFFFFFFFFFFFFFF AND PUSH20 0xFFFFFFFFFFFFFFFFFFFFFFFFFFFFFFFFFFFFFFFF AND DUP2 MSTORE PUSH1 0x20 ADD SWAP1 DUP2 MSTORE PUSH1 0x20 ADD PUSH0 KECCAK256 DUP2 SWAP1 SSTORE POP PUSH2 0x2CE PUSH1 0x40 MLOAD DUP1 PUSH1 0x60 ADD PUSH1 0x40 MSTORE DUP1 PUSH1 0x38 DUP2 MSTORE PUSH1 0x20 ADD PUSH2 0x92C PUSH1 0x38 SWAP2 CODECOPY PUSH0 DUP1 CALLER PUSH20 0xFFFFFFFFFFFFFFFFFFFFFFFFFFFFFFFFFFFFFFFF AND PUSH20 0xFFFFFFFFFFFFFFFFFFFFFFFFFFFFFFFFFFFFFFFF AND DUP2 MSTORE PUSH1 0x20 ADD SWAP1 DUP2 MSTORE PUSH1 0x20 ADD PUSH0 KECCAK256 SLOAD PUSH2 0x468 JUMP JUMPDEST POP PUSH2 0x466 JUMP JUMPDEST DUP1 NUMBER EQ PUSH2 0x316 JUMPI PUSH1 0x40 MLOAD PUSH32 0x8C379A000000000000000000000000000000000000000000000000000000000 DUP2 MSTORE PUSH1 0x4 ADD PUSH2 0x30D SWAP1 PUSH2 0x6C6 JUMP JUMPDEST PUSH1 0x40 MLOAD DUP1 SWAP2 SUB SWAP1 REVERT JUMPDEST PUSH0 PREVRANDAO SWAP1 POP PUSH2 0x359 PUSH1 0x40 MLOAD DUP1 PUSH1 0x40 ADD PUSH1 0x40 MSTORE DUP1 PUSH1 0xD DUP2 MSTORE PUSH1 0x20 ADD PUSH32 0x52414E444F4D5F4E554D42455200000000000000000000000000000000000000 DUP2 MSTORE POP DUP3 PUSH2 0x468 JUMP JUMPDEST PUSH0 PUSH1 0x2 DUP3 PUSH2 0x367 SWAP2 SWAP1 PUSH2 0x711 JUMP JUMPDEST SUB PUSH2 0x463 JUMPI PUSH0 PUSH1 0x2 PUSH0 DUP1 CALLER PUSH20 0xFFFFFFFFFFFFFFFFFFFFFFFFFFFFFFFFFFFFFFFF AND PUSH20 0xFFFFFFFFFFFFFFFFFFFFFFFFFFFFFFFFFFFFFFFF AND DUP2 MSTORE PUSH1 0x20 ADD SWAP1 DUP2 MSTORE PUSH1 0x20 ADD PUSH0 KECCAK256 SLOAD PUSH2 0x3B6 SWAP2 SWAP1 PUSH2 0x741 JUMP JUMPDEST SWAP1 POP PUSH0 CALLER PUSH20 0xFFFFFFFFFFFFFFFFFFFFFFFFFFFFFFFFFFFFFFFF AND DUP3 PUSH1 0x40 MLOAD PUSH2 0x3DD SWAP1 PUSH2 0x7AF JUMP JUMPDEST PUSH0 PUSH1 0x40 MLOAD DUP1 DUP4 SUB DUP2 DUP6 DUP8 GAS CALL SWAP3 POP POP POP RETURNDATASIZE DUP1 PUSH0 DUP2 EQ PUSH2 0x417 JUMPI PUSH1 0x40 MLOAD SWAP2 POP PUSH1 0x1F NOT PUSH1 0x3F RETURNDATASIZE ADD AND DUP3 ADD PUSH1 0x40 MSTORE RETURNDATASIZE DUP3 MSTORE RETURNDATASIZE PUSH0 PUSH1 0x20 DUP5 ADD RETURNDATACOPY PUSH2 0x41C JUMP JUMPDEST PUSH1 0x60 SWAP2 POP JUMPDEST POP POP SWAP1 POP DUP1 PUSH2 0x460 JUMPI PUSH1 0x40 MLOAD PUSH32 0x8C379A000000000000000000000000000000000000000000000000000000000 DUP2 MSTORE PUSH1 0x4 ADD PUSH2 0x457 SWAP1 PUSH2 0x80D JUMP JUMPDEST PUSH1 0x40 MLOAD DUP1 SWAP2 SUB SWAP1 REVERT JUMPDEST POP POP JUMPDEST POP POP JUMPDEST JUMP JUMPDEST PUSH2 0x500 DUP3 DUP3 PUSH1 0x40 MLOAD PUSH1 0x24 ADD PUSH2 0x47E SWAP3 SWAP2 SWAP1 PUSH2 0x8A5 JUMP JUMPDEST PUSH1 0x40 MLOAD PUSH1 0x20 DUP2 DUP4 SUB SUB DUP2 MSTORE SWAP1 PUSH1 0x40 MSTORE PUSH32 0xB60E72CC00000000000000000000000000000000000000000000000000000000 PUSH28 0xFFFFFFFFFFFFFFFFFFFFFFFFFFFFFFFFFFFFFFFFFFFFFFFFFFFFFFFF NOT AND PUSH1 0x20 DUP3 ADD DUP1 MLOAD PUSH28 0xFFFFFFFFFFFFFFFFFFFFFFFFFFFFFFFFFFFFFFFFFFFFFFFFFFFFFFFF DUP4 DUP2 DUP4 AND OR DUP4 MSTORE POP POP POP POP PUSH2 0x504 JUMP JUMPDEST POP POP JUMP JUMPDEST PUSH2 0x51B DUP2 PUSH2 0x513 PUSH2 0x51E PUSH2 0x53D JUMP JUMPDEST PUSH4 0xFFFFFFFF AND JUMP JUMPDEST POP JUMP JUMPDEST PUSH0 PUSH11 0x636F6E736F6C652E6C6F67 SWAP1 POP PUSH0 DUP1 DUP4 MLOAD PUSH1 0x20 DUP6 ADD DUP5 GAS STATICCALL POP POP POP JUMP JUMPDEST PUSH2 0x548 DUP2 SWAP1 POP SWAP2 SWAP1 POP JUMP JUMPDEST PUSH2 0x550 PUSH2 0x8D3 JUMP JUMPDEST JUMP JUMPDEST PUSH0 DUP1 REVERT JUMPDEST PUSH0 PUSH20 0xFFFFFFFFFFFFFFFFFFFFFFFFFFFFFFFFFFFFFFFF DUP3 AND SWAP1 POP SWAP2 SWAP1 POP JUMP JUMPDEST PUSH0 PUSH2 0x57F DUP3 PUSH2 0x556 JUMP JUMPDEST SWAP1 POP SWAP2 SWAP1 POP JUMP JUMPDEST PUSH2 0x58F DUP2 PUSH2 0x575 JUMP JUMPDEST DUP2 EQ PUSH2 0x599 JUMPI PUSH0 DUP1 REVERT JUMPDEST POP JUMP JUMPDEST PUSH0 DUP2 CALLDATALOAD SWAP1 POP PUSH2 0x5AA DUP2 PUSH2 0x586 JUMP JUMPDEST SWAP3 SWAP2 POP POP JUMP JUMPDEST PUSH0 PUSH1 0x20 DUP3 DUP5 SUB SLT ISZERO PUSH2 0x5C5 JUMPI PUSH2 0x5C4 PUSH2 0x552 JUMP JUMPDEST JUMPDEST PUSH0 PUSH2 0x5D2 DUP5 DUP3 DUP6 ADD PUSH2 0x59C JUMP JUMPDEST SWAP2 POP POP SWAP3 SWAP2 POP POP JUMP JUMPDEST PUSH0 DUP2 SWAP1 POP SWAP2 SWAP1 POP JUMP JUMPDEST PUSH2 0x5ED DUP2 PUSH2 0x5DB JUMP JUMPDEST DUP3 MSTORE POP POP JUMP JUMPDEST PUSH0 PUSH1 0x20 DUP3 ADD SWAP1 POP PUSH2 0x606 PUSH0 DUP4 ADD DUP5 PUSH2 0x5E4 JUMP JUMPDEST SWAP3 SWAP2 POP POP JUMP JUMPDEST PUSH32 0x4E487B7100000000000000000000000000000000000000000000000000000000 PUSH0 MSTORE PUSH1 0x11 PUSH1 0x4 MSTORE PUSH1 0x24 PUSH0 REVERT JUMPDEST PUSH0 PUSH2 0x643 DUP3 PUSH2 0x5DB JUMP JUMPDEST SWAP2 POP PUSH2 0x64E DUP4 PUSH2 0x5DB JUMP JUMPDEST SWAP3 POP DUP3 DUP3 ADD SWAP1 POP DUP1 DUP3 GT ISZERO PUSH2 0x666 JUMPI PUSH2 0x665 PUSH2 0x60C JUMP JUMPDEST JUMPDEST SWAP3 SWAP2 POP POP JUMP JUMPDEST PUSH0 DUP3 DUP3 MSTORE PUSH1 0x20 DUP3 ADD SWAP1 POP SWAP3 SWAP2 POP POP JUMP JUMPDEST PUSH32 0x494E434F525245435420424C4F434B0000000000000000000000000000000000 PUSH0 DUP3 ADD MSTORE POP JUMP JUMPDEST PUSH0 PUSH2 0x6B0 PUSH1 0xF DUP4 PUSH2 0x66C JUMP JUMPDEST SWAP2 POP PUSH2 0x6BB DUP3 PUSH2 0x67C JUMP JUMPDEST PUSH1 0x20 DUP3 ADD SWAP1 POP SWAP2 SWAP1 POP JUMP JUMPDEST PUSH0 PUSH1 0x20 DUP3 ADD SWAP1 POP DUP2 DUP2 SUB PUSH0 DUP4 ADD MSTORE PUSH2 0x6DD DUP2 PUSH2 0x6A4 JUMP JUMPDEST SWAP1 POP SWAP2 SWAP1 POP JUMP JUMPDEST PUSH32 0x4E487B7100000000000000000000000000000000000000000000000000000000 PUSH0 MSTORE PUSH1 0x12 PUSH1 0x4 MSTORE PUSH1 0x24 PUSH0 REVERT JUMPDEST PUSH0 PUSH2 0x71B DUP3 PUSH2 0x5DB JUMP JUMPDEST SWAP2 POP PUSH2 0x726 DUP4 PUSH2 0x5DB JUMP JUMPDEST SWAP3 POP DUP3 PUSH2 0x736 JUMPI PUSH2 0x735 PUSH2 0x6E4 JUMP JUMPDEST JUMPDEST DUP3 DUP3 MOD SWAP1 POP SWAP3 SWAP2 POP POP JUMP JUMPDEST PUSH0 PUSH2 0x74B DUP3 PUSH2 0x5DB JUMP JUMPDEST SWAP2 POP PUSH2 0x756 DUP4 PUSH2 0x5DB JUMP JUMPDEST SWAP3 POP DUP3 DUP3 MUL PUSH2 0x764 DUP2 PUSH2 0x5DB JUMP JUMPDEST SWAP2 POP DUP3 DUP3 DIV DUP5 EQ DUP4 ISZERO OR PUSH2 0x77B JUMPI PUSH2 0x77A PUSH2 0x60C JUMP JUMPDEST JUMPDEST POP SWAP3 SWAP2 POP POP JUMP JUMPDEST PUSH0 DUP2 SWAP1 POP SWAP3 SWAP2 POP POP JUMP JUMPDEST POP JUMP JUMPDEST PUSH0 PUSH2 0x79A PUSH0 DUP4 PUSH2 0x782 JUMP JUMPDEST SWAP2 POP PUSH2 0x7A5 DUP3 PUSH2 0x78C JUMP JUMPDEST PUSH0 DUP3 ADD SWAP1 POP SWAP2 SWAP1 POP JUMP JUMPDEST PUSH0 PUSH2 0x7B9 DUP3 PUSH2 0x78F JUMP JUMPDEST SWAP2 POP DUP2 SWAP1 POP SWAP2 SWAP1 POP JUMP JUMPDEST PUSH32 0x5472616E73666572204661696C65640000000000000000000000000000000000 PUSH0 DUP3 ADD MSTORE POP JUMP JUMPDEST PUSH0 PUSH2 0x7F7 PUSH1 0xF DUP4 PUSH2 0x66C JUMP JUMPDEST SWAP2 POP PUSH2 0x802 DUP3 PUSH2 0x7C3 JUMP JUMPDEST PUSH1 0x20 DUP3 ADD SWAP1 POP SWAP2 SWAP1 POP JUMP JUMPDEST PUSH0 PUSH1 0x20 DUP3 ADD SWAP1 POP DUP2 DUP2 SUB PUSH0 DUP4 ADD MSTORE PUSH2 0x824 DUP2 PUSH2 0x7EB JUMP JUMPDEST SWAP1 POP SWAP2 SWAP1 POP JUMP JUMPDEST PUSH0 DUP2 MLOAD SWAP1 POP SWAP2 SWAP1 POP JUMP JUMPDEST PUSH0 JUMPDEST DUP4 DUP2 LT ISZERO PUSH2 0x852 JUMPI DUP1 DUP3 ADD MLOAD DUP2 DUP5 ADD MSTORE PUSH1 0x20 DUP2 ADD SWAP1 POP PUSH2 0x837 JUMP JUMPDEST PUSH0 DUP5 DUP5 ADD MSTORE POP POP POP POP JUMP JUMPDEST PUSH0 PUSH1 0x1F NOT PUSH1 0x1F DUP4 ADD AND SWAP1 POP SWAP2 SWAP1 POP JUMP JUMPDEST PUSH0 PUSH2 0x877 DUP3 PUSH2 0x82B JUMP JUMPDEST PUSH2 0x881 DUP2 DUP6 PUSH2 0x66C JUMP JUMPDEST SWAP4 POP PUSH2 0x891 DUP2 DUP6 PUSH1 0x20 DUP7 ADD PUSH2 0x835 JUMP JUMPDEST PUSH2 0x89A DUP2 PUSH2 0x85D JUMP JUMPDEST DUP5 ADD SWAP2 POP POP SWAP3 SWAP2 POP POP JUMP JUMPDEST PUSH0 PUSH1 0x40 DUP3 ADD SWAP1 POP DUP2 DUP2 SUB PUSH0 DUP4 ADD MSTORE PUSH2 0x8BD DUP2 DUP6 PUSH2 0x86D JUMP JUMPDEST SWAP1 POP PUSH2 0x8CC PUSH1 0x20 DUP4 ADD DUP5 PUSH2 0x5E4 JUMP JUMPDEST SWAP4 SWAP3 POP POP POP JUMP JUMPDEST PUSH32 0x4E487B7100000000000000000000000000000000000000000000000000000000 PUSH0 MSTORE PUSH1 0x51 PUSH1 0x4 MSTORE PUSH1 0x24 PUSH0 REVERT INVALID TIMESTAMP PUSH13 0x6F636B204E756D6265722C2057 BASEFEE GASLIMIT 0x4E KECCAK256 PUSH3 0x6C6F63 PUSH12 0x4E756D626572546F42655573 PUSH6 0x64203D3D2030 PUSH8 0x616D654574685661 PUSH13 0x7565735B6D73672E73656E6465 PUSH19 0x5D2C205748454E20626C6F636B4E756D626572 SLOAD PUSH16 0x426555736564203D3D2030A264697066 PUSH20 0x58221220BB4A05E75F791B086122A0C04BC45EAD 0xA9 0xA7 PUSH16 0xB45F487085B51A718E3BD0951164736F PUSH13 0x63430008180033000000000000 "
		},
		"gasEstimates": {
			"creation": {
				"codeDepositCost": "491400",
				"executionCost": "49054",
				"totalCost": "540454"
			},
			"external": {
				"blockNumbersToBeUsedMapping(address)": "2802",
				"fundBank()": "141",
				"gameEthValues(address)": "2779",
				"playGame()": "infinite"
			}
		},
		"methodIdentifiers": {
			"blockNumbersToBeUsedMapping(address)": "7577493b",
			"fundBank()": "aa07b2ff",
			"gameEthValues(address)": "61e07df2",
			"playGame()": "af899735"
		}
	},
	"abi": [
		{
			"inputs": [
				{
					"internalType": "address",
					"name": "",
					"type": "address"
				}
			],
			"name": "blockNumbersToBeUsedMapping",
			"outputs": [
				{
					"internalType": "uint256",
					"name": "",
					"type": "uint256"
				}
			],
			"stateMutability": "view",
			"type": "function"
		},
		{
			"inputs": [],
			"name": "fundBank",
			"outputs": [],
			"stateMutability": "payable",
			"type": "function"
		},
		{
			"inputs": [
				{
					"internalType": "address",
					"name": "",
					"type": "address"
				}
			],
			"name": "gameEthValues",
			"outputs": [
				{
					"internalType": "uint256",
					"name": "",
					"type": "uint256"
				}
			],
			"stateMutability": "view",
			"type": "function"
		},
		{
			"inputs": [],
			"name": "playGame",
			"outputs": [],
			"stateMutability": "payable",
			"type": "function"
		}
	]
}